:020000040800F2
:1040000000400020414A0008C5480008C94800088F
:1040100000000000000000000000000000000000A0
:10402000000000000000000000000000CD48000873
:104030000000000000000000D1480008D54800083A
:10404000914A0008914A0008914A0008914A0008E4
:10405000914A0008914A0008914A0008914A0008D4
:10406000914A0008DD480008914A0008914A00087A
:10407000914A0008914A0008914A000831780008E6
:10408000914A0008914A00085D760008914A0008AC
:10409000914A0008914A0008914A0008914A000894
:1040A000914A0008914A0008914A0008914A000884
:1040B000914A0008914A0008914A0008914A000874
:1040C00010B5064C2378002B07D1054B002B02D0EE
:1040D000044800E000BF0123237010BD60030020EE
:1040E000000000005C7F0008044B10B5002B03D0DB
:1040F0000349044800E000BF10BDC04600000000B6
:10410000640300205C7F0008002243088B4274D3C4
:1041100003098B425FD3030A8B4244D3030B8B42C8
:1041200028D3030C8B420DD3FF22090212BA030CD1
:104130008B4202D31212090265D0030B8B4219D3B2
:1041400000E0090AC30B8B4201D3CB03C01A5241D2
:10415000830B8B4201D38B03C01A5241430B8B421A
:1041600001D34B03C01A5241030B8B4201D30B0303
:10417000C01A5241C30A8B4201D3CB02C01A52412A
:10418000830A8B4201D38B02C01A5241430A8B42ED
:1041900001D34B02C01A5241030A8B4201D30B02D6
:1041A000C01A5241CDD2C3098B4201D3CB01C01AF0
:1041B000524183098B4201D38B01C01A52414309FA
:1041C0008B4201D34B01C01A524103098B4201D3E8
:1041D0000B01C01A5241C3088B4201D3CB00C01A55
:1041E000524183088B4201D38B00C01A52414308CD
:1041F0008B4201D34B00C01A5241411A00D20146F2
:10420000524110467047FFE701B5002000F006F864
:1042100002BDC0460029F7D076E770477047C04618
:10422000F0B54F464646D64643025B0A4500C0B548
:1042300099460F1C2D0EC60F002D00D188E0FF2DD2
:1042400000D18DE08022DB00D2041A430023914686
:1042500098469A467F3D7C027B00640A1B0EFF0F46
:10426000002B68D0FF2B21D08022E400D20414431D
:1042700042467F3B5B1900215D1C0A2A2EDC7E40F2
:104280004246022A23DC013A012A00D9BDE0022974
:104290006ED001292CD100200022C005F607104362
:1042A0003043E0BCBA46B146A846F0BD2B00FF3310
:1042B000002C65D003224146114332000135884667
:1042C0007A40FF350A2900DDD8E016000321404678
:1042D00001228240A620C000024220D05346022B79
:1042E00046D0032B00D1BBE051464C460129D2D029
:1042F0002B007F33002B70DD620704D00F22224099
:10430000042A00D00434220103D5634B1C402B0047
:104310008033FE2B2CDCA201520AD8B2BDE79020DC
:104320008000024227D1B938FF3810426DD03E00DC
:10433000A1468A46D2E7002C41D1012342461A43C6
:1043400090462B00424601215D1C0A2A97DDC5E7F5
:10435000002B26D104239846033B00259A467AE792
:10436000002B18D108239846063BFF259A4672E792
:10437000FF20002291E780220026FF20D2038CE755
:1043800041460222013511438846FF350A29A5DC42
:1043900002217E4074E70C239846093BFF259A468C
:1043A00059E7180000F0BCF84A46431F76259A40AA
:1043B00000236D42914698469A462D1A4BE72000FD
:1043C00000F0AEF84246431F9C402B1A763B00217A
:1043D0005D1C0A2A00DC52E780E70122D31A1B2B5E
:1043E00000DD58E79E352200AC40DA40631E9C4158
:1043F0002243530704D00F231340042B00D0043270
:10440000530137D50120002247E7210C4A462404F6
:10441000240C2700100C1204120C44435743484349
:1044200051433A0C09195218944203D98021490288
:104430008C4660443F0411043F0CC9198C01671E6F
:10444000BC41120C890E12180C4392011443120144
:104450000ED5012362081C40144349E73E00A146E3
:1044600080224B46D2031A435202FF20520A14E71D
:104470001D003DE792010020520A0EE70F29EDD101
:1044800080224B46D2031342EAD01442E8D13E00C8
:10449000FF20224301E7C046FFFFFFF770B5041E6F
:1044A0000ED000F03DF89E2301001B1A962B0CDC69
:1044B00008282FD008398C406402640AD8B201E081
:1044C00000200024C005204370BD992B16DC421F3C
:1044D000052800D09440220010480240650709D00A
:1044E0000F252C40042C05D00432540102D59F2303
:1044F00002405B1A9201540AD8B2E3E7020020009E
:104500001B3290400200501E82410520401AC440D8
:104510001443E0E764029620640AD3E7FFFFFFFB41
:104520001C2101231B04984201D3000C10391B0AE3
:10453000984201D3000A08391B09984201D30009A7
:10454000043902A2105C40187047C04604030202FE
:1045500001010101000000000000000010B584B05E
:104560000C22002101A803F0C3FC0421224C234BA0
:104570006161802123608023490200221B06A16122
:10458000C22163600123A260E260FF312262200049
:1045900024322361E161A354A36200F093FB00285D
:1045A0001ED10A23019380235B010293072320007D
:1045B00001A9039300F0E6FC00281AD10B23200088
:1045C00001A9019300F0DEFC00280FD1200000F0CB
:1045D00069FD002807D1200000F018FC04B010BDD0
:1045E00000F056F9DDE700F053F9F4E700F050F978
:1045F000ECE700F04DF9E1E7C003002000240140A2
:1046000030B5040089B01422002102A803F070FC28
:104610001D4B22689A4201D009B030BD80211B4B4E
:1046200089009A691A480A439A619A690A40802166
:104630000092009A5A6909030A435A615B6903228E
:104640000B400193019B032302A90292039301F003
:10465000EFF880220F4D104BEA6080322A618022F1
:10466000D2002B606A610023202228006B60AB60BF
:10467000AA61EB6101F01CF8002802D125636C628D
:10468000CAE700F005F9F9E70024014000100240F4
:10469000000800487C0300200800024010B5040018
:1046A00088B01422002102A803F022FC134B2268D8
:1046B0009A4201D008B010BD8021114B8904DA69FB
:1046C00090200A43DA61DA69C0050A40802100922D
:1046D000009A5A6989020A435A615B69C0220B40F9
:1046E0000193019B0223520102920393032302A927
:1046F00005930133069301F09BF8DBE7006400406B
:104700000010024001230A4A00B5516983B01943E1
:104710005161526900211340019300220920019B3D
:1047200000F076FF092000F09DFF03B000BDC046F9
:104730000010024010B5194B194C01222360194B8F
:10474000200063600023E260A36023616361A361D2
:10475000E361236201F008FD00280CD10021200054
:1047600001F0CAFE00280ED10021200001F0EAFE6F
:10477000002810D110BD00F08BF80021200001F0BE
:10478000BBFE0028F0D000F083F80021200001F0EB
:10479000D9FE0028EED000F07BF8EBE7005800408F
:1047A000280400204713300030B5040089B01422DB
:1047B000002102A803F09CFB1A4B22689A4201D008
:1047C00009B030BD8022184CD2026369032513431F
:1047D000636163691548134000938022009B122394
:1047E000120102920393012302A90693059501F099
:1047F0001FF880239B0102931223039300230B488D
:10480000049302A905330693059501F011F880225F
:10481000E369D2031343E361E36913400193019B0E
:10482000CEE7C04600580040001002400004004897
:104830000848094B10B5036004234360074BC3606D
:10484000836001F0ADFE002800D110BD00F020F81B
:10485000FBE7C0467C04002000300040C309000094
:1048600010B503F0BFFA03F001F803F0BFF902F04E
:104870003FFF064B187802F019FC02F083FC03F0AE
:1048800009FB03F001FA02F09BFFF6E70C0700209A
:1048900072B6FEE701220A4B82B099691143996111
:1048A00099690A4080210092009ADA6949050A4311
:1048B000DA61DB690B400193019B02B07047C0468F
:1048C00000100240FEE7C046FEE7C0467047C04603
:1048D0007047C04610B500F013F910BD10B502487E
:1048E00000F058FF10BDC0467C0300207047C04652
:1048F00010B586B01022002102A803F0F9FA0822B0
:104900000021684603F0F4FA8023174CDB0523608E
:10491000164B174A636000232000A3602361803395
:10492000E260A36101F078FE002814D1802320000A
:104930005B0102A9029301F023FF002811D100229C
:104940000023694620000092019301F0CFFF002868
:1049500004D106B010BDFFF79BFFE7E7FFF798FF14
:10496000F7E7FFF795FFEAE7D40400203F9C00003B
:10497000E703000010B582B008220021684603F06A
:10498000B7FA114C114B20002360114B63600023D8
:10499000A360104BE3608023A36101F03DFE00287B
:1049A0000BD100220023694620000092019301F000
:1049B0009DFF002804D102B010BDFFF769FFF0E7AA
:1049C000FFF766FFF7E7C0468C04002000140040A4
:1049D0009F0F00005FEA0000802200B5036883B0EB
:1049E000D205934204D0144A934213D003B000BDC1
:1049F0000123124A0F20D1691943D161D2690021E4
:104A0000134000930022009B00F002FE0F2000F0F4
:104A100029FEEBE72023094A1220D1691943D1610D
:104A2000D2690021134001930022019B00F0F0FDA8
:104A3000122000F017FED9E70014004000100240D9
:104A40000D488546FFF752FF0C480D490D4A0023DB
:104A500002E0D458C4500433C4188C42F9D30A4A33
:104A60000A4C002301E013600432A242FBD303F09E
:104A700047FAFFF7F5FEFEE700400020C0000020E7
:104A800060030020988300086003002020070020B6
:104A9000FEE7000070B50400FA200E4B8000197884
:104AA000FFF732FB0C4D01002868FFF72DFB00F0EB
:104AB000E5FD00280CD10130032C00D970BD02386F
:104AC0000022210000F0A4FD044B00201C60F5E74B
:104AD0000120F3E7C4000020C0000020C80000202F
:104AE0001021064A10B5136803200B431360FFF72B
:104AF000D1FFFFF7CFFE002010BDC04600200240CE
:104B0000034A044B11681B785B1813607047C0465A
:104B10001C050020C4000020014B18687047C046E7
:104B20001C050020F8B503230268040091680B40BF
:104B3000012B01D00020F8BD11680B420ED00527D3
:104B400093681F40012F0DD01022A36B0120134347
:104B5000A363E36B0F3A1343E363ECE7D3681B04EF
:104B6000E8D5ECE70221936801250B43936003230A
:104B70001360FFF7D1FF236806009B681F42D9D05E
:104B8000FFF7CAFF2368801B022802D99A681542E2
:104B900003D19B681D42F3D1CCE71022A36B012007
:104BA0001343A363E36B2B43E363C4E7042203686B
:104BB00070B5996804000A421DD099680A4206D06F
:104BC0009A68920703D410219A680A439A60FFF703
:104BD000A3FF236806009B685B070CD50425FFF73D
:104BE0009BFF2368801B022802D99A68154204D1D2
:104BF0009B681D42F3D1002070BD1022A36B0120E1
:104C00001343A363E36B0F3A1343E363F4E7C04634
:104C1000002370B5026882B00193916803330400E9
:104C20000B40012B37D09168234B194229D1012128
:104C300093680B439360214B21491868FFF764FA8E
:104C40000190019B002B05D0019B013B0193019B2F
:104C5000002BF9D1FFF760FF236806001B680125D0
:104C6000DB070BD4FFF758FF2368801B022802D90B
:104C70001A68154216D01B681D42F3D0002002B0FE
:104C800070BD1022A36B01201343A363E36B0F3AA3
:104C90001343E363F3E711680B42EFD1D3681B04BE
:104CA000ECD4C0E71022A36B01201343A363E36B92
:104CB0002B43E363E3E7C04617000080C0000020F9
:104CC00040420F0070B5041E64D0836B002B68D087
:104CD000A36BDB0660D4226893685B075CD4A36B8C
:104CE00047490B400631FF310B43A363032391680F
:104CF0000B40012B5BD01821D3688B43A1680B4379
:104D0000D360136961689B009B080B431361D368F0
:104D10003C490B40D360237E617E9B03C9030B4358
:104D2000A07EE1680B4341030B432421615C4900F1
:104D30000B43A16A01394D1EA94109030B432169A7
:104D400002394D42694189000B43E17E01293ED081
:104D5000C220E169FF30814202D0206A01430B4347
:104D6000D168E56A1943D160802149058D4225D07B
:104D7000691E062922D9D26823490A409A422CD0BA
:104D80001222A36B9343023A1343A363E36B0F3ADC
:104D90001343E363012070BD1022A36B1343A3638D
:104DA000F8E73422C3638354FFF72AFC90E71168C5
:104DB0000B42ACD1D3681B04A9D49CE707215069EE
:104DC000884350615069294001435161D3E700286D
:104DD0000DD1802149020B43BAE700230322E3638C
:104DE000A36B00209343023A1343A363D3E7202528
:104DF000A06B2843A063E06B0143E163A8E7C046D2
:104E0000FDFEFFFF1902FEFFE7FF3F83342370B56D
:104E1000C25C0400012A14D00125C554FFF7C6FE68
:104E2000002803D034230022E25470BD2000FFF795
:104E300079FE0028F6D1A36B034A13402B43A363EA
:104E4000F0E70220F1E7C046FEFEFFFFD0B50E00FE
:104E5000016804008B6817005B0735D43423C25CFB
:104E6000012A31D00122C254437E012B04D0FFF726
:104E7000CFFE002827D12168A26B144B1A40802353
:104E80005B001343A36334220023E363A354206B2A
:104E90000F4B243A83620F4BC3620F4B03631C23F7
:104EA0000B604B6813434B60CB680F3A1343CB60E6
:104EB00032003B00403100F02FFC0421002022682A
:104EC00093680B439360D0BD0220FCE7FEF0FFFF28
:104ED000E14E0008594F0008694F00087047C0466E
:104EE0005021436A10B59A6B11420ED18022996B02
:104EF00092000A43C0219A631A680901D0680842E7
:104F000007D01800FFF7EAFF10BD1B6B1B6B98471B
:104F1000FAE7997E0029F4D111680907F1D5916863
:104F200049070BD40C205168814351609A6B0849A2
:104F30000A400431FF310A439A63E2E720219A6B69
:104F40000A439A63DA6B1F390A43DA63D9E7C0462A
:104F5000FEFEFFFF7047C04610B5406AFFF7FAFF3C
:104F600010BDC0467047C0464022406A10B5836BF2
:104F700013438363C36B3C3A1343C363FFF7F2FFEE
:104F800010BDC04600233422F0B583B00193835C8A
:104F90000400C56A012B57D001238354026890682E
:104FA000400709D520220120A36B1343A3633423B8
:104FB0000022E25403B0F0BD10267642B4460868E1
:104FC000314E4F6883408444B74225D0966A3343BC
:104FD000936280235B059D420FD0013D062D0CD9C5
:104FE00007238D68516919408D4206D05169994354
:104FF000516151692B400B4353616346022B09D821
:10500000224B80211A68102822D0112837D0490459
:105010000A431A600020CAE7916A99436346916285
:10502000022BF7D8194B1B6810280FD01138421EDD
:105030009041174A40421040164A94466044184036
:10504000124B18600020B2E70220B3E71248F6E7DF
:1050500009040A431A60114B11491868FFF754F804
:1050600083001B185B000193019B002BD2D0019B96
:10507000013B0193019B002BF9D1002097E7C90365
:105080000A4300201A6092E701100000082701403F
:10509000000040FFFFFFBFFFFFFF7FFFC0000020B9
:1050A00040420F00342370B5C25C0400012A4ED088
:1050B0000122C2540368023299680A40012A05D1CC
:1050C00019680A422ED1DA6812042BD4A26B214946
:1050D0000A400631FF310A43A263DE68DA68013113
:1050E0008A43DA608022996812060A439A60FFF7C1
:1050F00013FD050023689A68002A1CDAFFF70CFDEF
:105100002368401B0228F6D99A68002AF3DA122293
:10511000A36B01209343023A1343A3630022342379
:10512000E25407E020220120A36B1343A36334233E
:105130000022E25470BD0322D96816400E43DE609F
:10514000A36B00209343023A1343A363EFE70220CB
:10515000F0E7C046FDFEFFFF70B5041E6CD02023B3
:10516000C35C002B6AD001212268012613680B431F
:105170001360FFF7D1FC050004E0FFF7CDFC401BF6
:105180000A2851D823685A681642F6D002211A68B4
:1051900002268A431A60FFF7BFFC050004E0FFF710
:1051A000BBFC401B0A283FD823685A681642F6D138
:1051B000227E012A45D080211A688A431A60627EC5
:1051C000012A57D040211A688A431A60A27E012A18
:1051D0004BD020211A688A431A60E27E012A3FD010
:1051E00010211A680A431A60227F012A33D008214D
:1051F0001A688A431A60627F012A27D004211A683C
:105200008A431A60E168A26800200A4321690A43C0
:1052100061690A43616801390A43DA6100230122A6
:1052200063622033E25408E08023626A9B021343E6
:10523000636205222023E254012070BDFFF72EFA9D
:1052400091E780211A680A431A60B8E704211A68B6
:105250000A431A60D6E708211A680A431A60CAE7A7
:1052600010211A688A431A60BEE720211A680A438F
:105270001A60B2E740211A680A431A60A6E7C046DE
:10528000202370B5C35C0468013B012B06D9802341
:10529000426ADB0213434362012070BD8020012378
:1052A0008000225887261A4322504A69E238FF3884
:1052B00010408340B600A059DD439843A051C8690F
:1052C00000283BD1103EA059D2002840A051C86808
:1052D0008E88000430439026A218B600905188684A
:1052E0000E88000430439126B600905181208A69CF
:1052F0008000002A1ED122582A40225085200A69A7
:105300008000002A12D122582A4022500A6A012A1B
:1053100004D1872189006258134363508022012100
:105320009200A35800208B43A350B6E722581A439B
:105330002250EBE722581A432250DFE70128D5D14B
:105340008326B600A059D2001843A05108688E8861
:10535000000430439026A218B600905188688E89C8
:10536000000430439126B6009051BFE7202270B56B
:10537000835C0400D9B2012B06D08023426A1B0350
:1053800013434362012070BD013383540268012539
:1053900013688B431360FFF7BFFB060004E0FFF7C1
:1053A000BBFB801B0A2808D82A0023685B681A40C8
:1053B0001D42F4D100206262E5E78023626A9B020D
:1053C0001343636205222023E254DBE770B52024F7
:1053D000045D0668013CB568012C4CD8E0246405E6
:1053E000254241D00120AD01AD0FA84018608B6867
:1053F000002B46D04868CC68C000234303432800F4
:10540000183000018351C2230C692D0170195B0013
:10541000C450097D012903D1C458FF312143C15033
:10542000537911791B020B439179751909041943BA
:10543000D3791B060B4329008D31FF310B60537864
:1054400011781B020B439178893509041943D378ED
:10545000C0221B060B430121FF352B6052008358ED
:105460000B438350002005E08023426A9B031343D3
:105470004362012070BD8023426ADB021343436212
:10548000F7E70B68C8685B05B8E7C0462022825C76
:105490000300013A0020012A0BD81A68906893682B
:1054A00040011B01DB0FC00FC0189368DB00DB0F4E
:1054B000C0187047F0B5CE464746202480B5045D3D
:1054C000013C012C00D97FE00468A14600290CD1E1
:1054D000E568AD070CD18023426A9B031343436206
:1054E0000120C0BCB946B046F0BD2569AD07F2D079
:1054F0004C46D8270E01A5197F00BC46EF59B84687
:105500000427444627409760644663D02F59FF081C
:105510005760D8277F00EC59AF3FFF3F2740DA2480
:105520006400A0462C59D7600827240703D44446BA
:105530002C5907372740DA24640017612F592D5959
:105540003F043F0E2D0C976155614A469419B934BA
:10555000FF3422681A7002689219B932FF32126859
:10556000120A5A7002689219B932FF321268120C8C
:105570009A7002689219B932FF321268120EDA700C
:1055800002689219BD32FF3212681A7102689219CC
:10559000BD32FF321268120A5A7102689219BD3286
:1055A000FF321268120C9A7102689219BD32FF32F2
:1055B0001268120EDA71026800290FD1D368203107
:1055C0000B430020D3608CE78023426ADB02134345
:1055D000436285E72F597F0D17609AE720211369F1
:1055E00000200B4313617CE72022825C0300013A18
:1055F0000020012A00D970471B68002903D1DB680D
:1056000003301840F7E703201B691840F3E7C04652
:10561000FF22032310B514000340DB009C408901E6
:105620000A40E4439A4000280BDB0C4BC0219C4607
:10563000800880006044890043582340134343504E
:1056400010BD0F23064903408C46083B9B089B0076
:105650006344D9690C401443DC61F1E700E100E0E8
:1056600000ED00E0002805DB1F22012302409340EB
:10567000014A13607047C04600E100E08022431EEB
:105680005204012093420ED2C021074A07485360BA
:10569000036A09061B021B0A0B4303620023002056
:1056A000936007331360704710E000E000ED00E006
:1056B00070B5041E27D02125022343550068134BE3
:1056C0000268A1681A4063680B43E1680B432169D3
:1056D0000B4361690B43A1690B43E1690B4313431E
:1056E00003600B4B14219C466044FEF70DFD094BF3
:1056F0000122E3630023800020640020A36362553D
:105700001F32A35470BD0120FCE7C0460FC0FFFF4D
:10571000F8FFFDBF00000240F0B52024055D012D1B
:1057200008D0012521270555C55DEEB2012D03D016
:10573000002303550220F0BD1E3CC45500248463A1
:105740000468076C2568B543BE402560C56B6E6074
:1057500063604368102B0ED0C36AA160E260002B27
:105760000ED00E22236813432360012223680020F9
:1057700013432360DFE7C36AA260E160002BF0D12E
:105780000A222368134323602368063A9343236065
:10579000EBE7C0460421F8B50C00036CC76B9C40D6
:1057A0003A680668356822420DD029420BD033682A
:1057B0009B0602D433688B433360C36A7C60002B42
:1057C00000D09847F8BD02210C009C40224214D022
:1057D000294212D033689B0606D40A2233689343C9
:1057E00033602123093AC254202300227C60C25432
:1057F000836A002BE6D09847E4E708210C009C4020
:105800002242DFD02942DDD0326806318A4332603D
:10581000012211009940212379608263C254002241
:10582000013BC254036B002BCCD09847CAE7C0465B
:10583000F0B5DE4657464E464546E0B50C680023B7
:1058400087B0002C76D0794A794E93460291012296
:105850009A409446224000926246144266D00299D1
:105860005D004A689246032251460A400321A9403E
:10587000C943571E0191012F63D9032A00D0B7E015
:10588000AA400768019939400A43C0210260524684
:1058900089020A424AD05A4601215D4692690F2781
:1058A0000A43AA61AA6903250A4062491D408C4641
:1058B000AD00AF400592059A9A0892006244916843
:1058C000B9439027FF05B84212D05B4FB84200D1D0
:1058D0009FE05A4FB84200D19FE0594FB84200D1E3
:1058E00093E0584FB84200D19BE00527AF403943C1
:1058F00080275546916000997F03C943B2683D42B5
:1059000000D072E00A405546B260F268AD0269D438
:105910000A405546F2607268AD0360D40A405546AD
:1059200072603268ED0355D40A40326022000133C0
:10593000DA408CD107B0F0BCBB46B246A946A046BF
:10594000F0BD81680F0001990F40B946029FF968C8
:105950000F00AF40B8464F4641460F43876041684D
:105960000F0061468F4351460909B8460F000121D7
:105970000F409F40BC46474661460F434760C168A1
:105980000F0001990F400299B84689680F00AF4097
:10599000BC46474661460F43C760022A00D06FE706
:1059A000D90889008C46844461460F6A0721194052
:1059B0008900884603970F214746B940039F8F43CC
:1059C0000397474602990969B940039F0F4361460F
:1059D0000F6255E7009911430A003260A6E7009D67
:1059E0002A439CE7009D2A4393E7009D2A438AE7C8
:1059F0000F00C1683940884602998968A9408C46E1
:105A0000414667463943C1603AE70327AF4039430F
:105A10006EE70127AF4039436AE70227AF403943B9
:105A200066E70427AF40394362E7C04600100240F2
:105A30000004014000000140000400480008004844
:105A4000000C00480010004800690840431E9841BF
:105A5000C0B27047002A01D0816170478162FCE7C3
:105A6000F0B557464546DE464E46E0B583B0019157
:105A70001021036888469A69323104008A4612046C
:105A800000D496E042464046996900250A40084203
:105A900041D0002293468022120200279146019EA7
:105AA000D86120359A6915422DD1002F2ED1FFF7EC
:105AB00033F82368801B1928F4D952465868A25C31
:105AC0009969D2B294464A4611420DD08021C9014B
:105AD000084209D16246202A06D05A68114359600B
:105AE000FFF71AF8060023689A691542DAD1FFF722
:105AF00013F82368801B1928F6D9202293469A6947
:105B000001271542D1D0002F00D1DD610422594672
:105B100011430A000125802099694000014234D0D8
:105B20000125D8612A43480504D508200243802076
:105B3000C000D861890504D502210A43FF31FF3135
:105B4000D9619969890701D5002199620121986974
:105B5000014202D198690143996159681A4801408C
:105B60005960636C1343636420224123E254002292
:105B70000133E254402300220120E25403B0F0BC80
:105B8000BB46B246A946A046F0BD4805CDD489051E
:105B9000D2D4002DD5D1FEF7BFFF019BC01A2368D8
:105BA000192802D99A69120405D49A69120400D5F9
:105BB00068E70020E2E72022636C1343636441231B
:105BC000E2540133E554D5E700E800FEF0B557464E
:105BD000DE4645464E461024E0B5924607000D00CD
:105BE0009B46036883B0042251469146BA465F46FD
:105BF0009A692A40521B504242418A4200D080E0BA
:105C00002200986902409446002204420ED0DC61D2
:105C10007A1C00D07CE020209A691042FCD000263B
:105C20002022DA614A4632439446012280209E694E
:105C30004000064237D062460124310057462243D5
:105C4000D861700504D5082002438020C000D861C7
:105C5000890504D502210A43FF31FF31D9619969D1
:105C6000890701D50021996201219869014202D179
:105C700098690143996159684F48014059607B6CAC
:105C800013437B6420224123FA5400220133FA5447
:105C9000402300220120FA5403B0F0BCBB46B246B8
:105CA000A946A046F0BD700503D5624631005746AF
:105CB000C9E7B60502D562465746CBE7002A24D18C
:105CC0007A1C95D0BB4657468A46FEF725FF0C9BAB
:105CD000C01A584502D85B46002B14D13B689A691C
:105CE0002A40521B51424A41524500D07BE72022B4
:105CF0007B6C13437B644123FA5400220133FA5432
:105D0000C6E70020C8E73B686DE762465746A6E74E
:105D10000C9A0026934600220092203290462A00D8
:105D20005546B2465E469346019141469A691142F4
:105D300034D1009A002A3AD1FEF7EEFE2B68801B80
:105D4000874201D3002FF0D142225868AA5C99699A
:105D5000D2B294468022120211420DD08021C90194
:105D6000084209D16246202A06D05A681143596078
:105D7000FEF7D2FE06002B6841469A691142D4D143
:105D8000FEF7CAFE2B68801B1928F5D92022414650
:105D900092461F3A00929A691142CAD0009A56461A
:105DA0000199AA465D46002A00D139E73AE75646EE
:105DB0000199AA465D4635E700E800FEF0B5DE46EB
:105DC00057464E464546E0B50D000421036892460D
:105DD0009A69040010268B4683B0920664D4320080
:105DE000996900270A400E420CD0DE616A1C65D119
:105DF00020219A691142FCD000222021D961594604
:105E000001270A43802099694000014234D00125CE
:105E1000D8612A43480504D5082002438020C000E9
:105E2000D861890504D502210A43FF31FF31D961C8
:105E30009969890701D50021996201219869014278
:105E400002D19869014399615968444801405960F9
:105E5000636C1343636420224123E2540022013324
:105E6000E254402300220120E25403B0F0BCBB46C0
:105E7000B246A946A046F0BD4805CDD48905D2D486
:105E8000002FD5D1FEF748FE5346C01A2368A8421A
:105E900001D8002D05D120221000996908400A423E
:105EA00004D09A6992069AD50020DEE7636C13430A
:105EB00063644123E2540133E054D2E72800002216
:105EC00000215546894620279246804601959A69C9
:105ED00017420ED14A46002A3BD1FEF71DFE401B59
:105EE00080450FD34346002B0CD023689A69174294
:105EF000F0D0019952468A4649464546002900D1CC
:105F00007BE77CE7422223685868A25C9969D2B299
:105F100094468022120211420DD08021C90108420C
:105F200009D16246202A06D05A6811435960FEF70B
:105F3000F3FD050023689A691742C8D1FEF7ECFD0E
:105F40002368401B1928F6D9202292461F3A914611
:105F5000BDE70199524645468A4650E700E800FEF3
:105F6000F0B557464E46DE464546E0B503689246D4
:105F70009A6904000E0083B0520700D595E0042210
:105F8000102593462A00996900270A400D420DD03A
:105F9000DD61721C00D094E020219A691142FCD08E
:105FA00000222021D961594601270A43802099699E
:105FB000400001423AD00125D8612A43480504D562
:105FC000082002438020C000D861890504D5022141
:105FD0000A43FF31FF31D9619969890701D5002151
:105FE000996201219869014202D19869014399613E
:105FF00059685C4801405960616C42200A43626400
:1060000041212022625400212154023821549B69ED
:106010001A4228D0FEF780FD23689B69012003B057
:10602000F0BCBB46B246A946A046F0BD4805C7D461
:106030008905CCD4002FCFD1202299690A4218D0EB
:10604000996999690D4213D00421DD616164DA61B7
:1060500059684448014059604123E2540133E754F0
:10606000023BE754D6E7FEF757FD23689B69D5E767
:106070006764FEF751FD5346C01A864217D2226864
:1060800058465F469169130008400F4209D120210C
:10609000636C0B4363644123E154013BE054936917
:1060A000BCE79269174200D16CE70020B7E723688C
:1060B0001A00002EE4D09A69520700D462E700204B
:1060C000ADE730000022002156468946202792463F
:1060D000804601969A6917420ED14A46002A3BD162
:1060E000FEF71AFD801B80450FD34346002B0CD0D2
:1060F00023689A691742F0D0019952468A46494668
:106100004646002900D14CE74DE7422223685868F3
:10611000A25C9969D2B294468022120211420DD03B
:106120008021C901084209D16246202A06D05A6856
:1061300011435960FEF7F0FC060023689A69174284
:10614000C8D1FEF7E9FC2368801B1928F6D9202264
:1061500092461F3A9146BDE70199524646468A4605
:1061600021E7C04600E800FE10B5041E52D04123CE
:10617000C35CDAB2002B48D0412324220121E2542F
:106180002368A0681A688A431A60234962680A4033
:106190001A619A6821490A409A60E268012A0BD084
:1061A0008421090201439960022A09D18022596899
:1061B00012010A435A6007E08022120202439A60E9
:1061C0005A6817490A405A605968164A00200A431B
:1061D0005A60DA6811490A40DA60616922690A4343
:1061E000A16909020A43DA60216AE2690A430121CE
:1061F0001A601A680A431A60002341221F3163643F
:10620000A15401322363A35410BD4033C254FEF79E
:10621000CBFAB1E70120F7E7FFFFFFF0FF7FFFFFB9
:10622000FFF7FFFF00800002F0B54E464546DE4610
:10623000574698464123E0B59B46C35C83B00400B3
:106240000E0091460C9D202B00D086E02033C25CCE
:10625000012A00D181E00122C2549246FEF75CFC83
:10626000070001002000FFF7FBFB00286DD122236F
:106270005A46A35410222033E2544B4663624346ED
:1062800060646385B605638DB20D904660632268D5
:10629000FF2B64D84046638D51689BB22385DBB2E7
:1062A0001B0403433B4801400B433B490B435360F2
:1062B000638D3A0029002000002B34D0FFF750FEF8
:1062C000002842D123685A6A636A1A70668D636A2D
:1062D000013E01336362B6B2238D6685013B628D58
:1062E0009BB22385002AE3D0002BE1D12B000022B2
:1062F000802120000097FFF769FC002825D1638DDD
:106300002268FF2B36D9FF232449238553682000B8
:106310000B4041460B4322490B435360638D3A00C7
:106320002900002BCAD1FFF749FD00280DD12021FB
:1063300023681C4DD9615A682A405A604123E154B0
:106340000133E054023BE05400E0012003B0F0BC14
:10635000BB46B246A946A046F0BD0220F6E753462A
:106360000C49238553680B4041460B430E490B43B0
:1063700053609DE74046638D51689BB22385DBB235
:106380001B040343054801400B43802189040B4350
:1063900053608DE7009800FC00240002009C00FC84
:1063A0000000FF0100E800FE00240101F0B54546B1
:1063B000DE4657464E46E0B51D000023904641227A
:1063C00087B00593835C0400202B57D1036880209D
:1063D0009E6900023700074006424FD14020265CEC
:1063E000012E4BD0012626541C38A05467648F051B
:1063F000BA0D110003923E4A11438946E1684A46AC
:10640000012902D13B4A03990A435A60FEF784FBF3
:10641000202322680600916990690B4010210140F9
:106420000B4309D16B1C31D120271020916993694E
:10643000394003401943F9D09369102200969246DF
:106440001A4244D02B00002220212000FFF7BEFB7F
:10645000002811D1524620212368DA61D961059ABA
:1064600001320592059A4245C8D34123E154636C39
:106470000B4363644023E054012000E0022007B096
:10648000F0BCBB46B246A946A046F0BD002D1BD0CD
:10649000202310279B4607E058462268936991699C
:1064A000034039400B43C7D1FEF736FB801B8542C2
:1064B000F2D220224123E254636C0120134363642F
:1064C00000224023E254DAE7FEF726FBF1E72B0037
:1064D000002220212000FFF779FB0028CCD12023C7
:1064E0002268D3614122A3542033E054C7E7C04659
:1064F0000028000200200002F0B54124035D8C4614
:10650000DDB2202B1AD14026835D012B16D0242327
:106510000127035503680A491A68BA431A601A68C2
:106520000A401A6062461968114319601A683A43B2
:106530001A600023055583550020F0BD0220FCE7BA
:10654000FFEFFFFFF0B5CE464746412480B5035D1F
:10655000DDB2202B1FD14026835D012B1BD02423CD
:10656000012703550268B94613680902BB4313604B
:10657000136898464746094B1F4039431160494606
:1065800013680B4313600023055583550020C0BCDE
:10659000B946B046F0BD0220F9E7C046FFF0FFFF64
:1065A00070B5041E23D00368144A1A60144A1A6096
:1065B00042685A6082689A60FEF7AEFA2368060065
:1065C000DA6852070CD00725FEF7A6FA2368801B6D
:1065D000272802D9DA6815420BD1DA681542F3D1BF
:1065E0001969E268914206D01A61002070BD01204D
:1065F000FCE70320FAE7034A1A60F6E7CCCC000078
:1066000055550000AAAA00000368024A00201A603B
:106610007047C046AAAA000070B5041E00D16CE005
:106620003D23C35CDAB2002B51D03D230222E25459
:106630002368334E1A68A5696168E068B3424BD09D
:106640008026F605B34233D02E4EB34230D02E4EC4
:10665000B34231D02D4EB34242D02D4EB3423FD043
:106660002C4EB3423CD08026B2432A431A60D862F3
:10667000996201225A6119690A4202D0196991434B
:106680001961012346220020A354083AA354013281
:10669000A3540132A3540132A3540132A354013252
:1066A000A3540132A3540132A354083AA35470BD39
:1066B0007026B243A6683243174E324026693243F1
:1066C0008026B24315431D60D8629962D1E73C33FE
:1066D000C254FEF781F9A8E77026B243A668324398
:1066E0000D4E3240266932438026B2432A431A6057
:1066F000D862996262691A63BBE70120D7E7C04696
:10670000002C0140000400400020004000400140F7
:106710000044014000480140FFFCFFFF3D2110B54F
:10672000425C0300D4B20120012A16D101325A542E
:106730001B68DA682243DA600E4A93420ED0802248
:10674000D20593420AD00C4A934207D00B4A934297
:1067500004D01A6822431A60002010BD07229968ED
:106760000A40062AF8D001211A6800200A431A605C
:10677000F3E7C046002C0140000400400040014007
:106780003C2370B50200C05C012800D173E00124F5
:106790000220D4540133D0541068514D83682B40EB
:1067A00083600B68602B00D167E01DD8402B00D1BF
:1067B0007DE03FD9502B35D14D68CB68016A066A20
:1067C0001B01A6430662F0268469B44323430A24CE
:1067D000A143294383610162702183688B43193986
:1067E0000B43836000201EE080246401A342F9D0A3
:1067F0008024A401A3422BD184683A4B4D681C40ED
:106800008B68C9682B4309020B43234383608023B1
:106810008168DB010B438360002004E010211C0031
:106820008C430CD001203D230121D1540021013B98
:10683000D15470BD202B02D0F0D9302BF2D170246E
:106840008168A1430B4307210B4383600020EAE7E3
:10685000702BE7D18468234B4D681C408B68C96856
:106860002B4309020B4377212343836083680B4347
:1068700083600020D7E70220DBE71026046A056A60
:106880004B68B543C96805628569174E09033540F1
:106890002943A02581617021AC431B01234303627E
:1068A00083688B4309390B4383600020BBE74D6845
:1068B000CB68016A066A1B01A6430662F02684695A
:1068C000B44323430A24A143294383610162702115
:1068D00083688B4329390B4383600020A3E7C046BC
:1068E0008800FFFFFF00FFFFFF0FFFFF3C2330B5D5
:1068F000C35C012B24D03D2302227025C2540368BF
:106900005A689C68AA430D682A435A600D4A93420C
:1069100009D08022D205934205D00B4A934202D07F
:106920000A4A934204D1802294434A6814439C60EB
:106930003D230122C2540022013BC254002030BD3D
:106940000220FCE7002C0140000400400040014010
:10695000014B18607047C046C00000207F230088AC
:106960009843034B9C46604443425841C0B2704731
:1069700000FAFFFF0088054B1840054B9C46054B6D
:106980006044184043425841C0B2704780FEFFFF48
:1069900000FEFFFF80FD0000034B00889C46604422
:1069A00043425841C0B2704781F8FFFF70B50F26CF
:1069B000957853781400D2782D021D43130999005D
:1069C000591832404900891803222378C9B2134369
:1069D00023707F2302881340B022D2009446634480
:1069E00003802378B343402B03D00020202B1BD0FF
:1069F00070BD2800221D00F017FA002812D00423D1
:106A000003220C211B1A1A40237892008B43134354
:106A1000237004230F2221781B010A401343012015
:106A20002370E5E70823F5E72800221D00F060FA4F
:106A30000028F7D0042303220C211B1A1A402378C4
:106A400092008B43134323700623E3E77F220388DE
:106A500010B593438232FF3293420DD0C022920090
:106A6000934216D08022D20093420DD0A022002063
:106A7000D200934214D010BD0C4B1B69002B01D0E7
:106A8000080098470120F6E7084B9B69002BF7D1D7
:106A9000F8E7064B5B69002BF4D008009847F1E754
:106AA000024BDB69002BEBD1ECE7C0462005002050
:106AB000014B80001950704720050020F8B506AD45
:106AC00004000F0016002D78002807D0012821D0DF
:106AD000022811D00020032C2AD0F8BD1B4A1268CE
:106AE000002A07D018009047082333707933FF330A
:106AF0002B433B800120F0E7144A9268002AF9D02A
:106B00001800904708233370E0239B002B4301209B
:106B10003B80E2E70D4A5268002AEBD0180090470C
:106B200008233370A0239B002B4301203B80D4E734
:106B3000064AD268002ADDD0180090470823337037
:106B40009023DB002B4301203B80C6E7200500207B
:106B500010B5124B124C420023600023A360E36087
:106B60000133FF33A3610223FF33A3830D4B1218BC
:106B700018009200D35C80186360436823618368C7
:106B800020006361FEF7E8FA002803D12000FEF739
:106B9000EDFB10BDFDF77CFEF8E7C0460064004049
:106BA00000040020CC000020002370B5664A674C2A
:106BB000674E22606360A260E360002200232261CE
:106BC000636100230122A261E3610123050021002A
:106BD00030002362FEF754FB002800D09CE0C02266
:106BE00001210023D200AA1852016161A161216232
:106BF00030002100E36122606360A260E3602361F2
:106C0000FEF73EFB002800D09BE00223E02201219A
:106C100063610023D200AA185201A16121623000F1
:106C20002100E36122606360A260E3602361FEF7FC
:106C300027FB002800D081E003238022012163612B
:106C400000239200AA185201A161216230002100A4
:106C5000E36122606360A260E3602361FEF710FBE2
:106C6000002868D10423C02201216361002392001F
:106C7000AA185201A161216230002100E361226063
:106C80006360A260E3602361FEF7FAFA00284FD147
:106C900005238022012163610023D200AA1852013A
:106CA000A161216230002100E36122606360A26083
:106CB000E3602361FEF7E4FA002836D1A021062321
:106CC000C9008C4601226361002365446D012100E7
:106CD0003000A261E36125606360A560E360236129
:106CE0002262FEF7CDFA00281CD100220023226088
:106CF0006360A260E36000220723226163610023D6
:106D00000122A261E3610123210030002362FEF72A
:106D1000B7FA002803D170BDFDF7BAFD5FE7FDF7B4
:106D2000B7FDF8E7FDF7B4FDDFE7FDF7B1FDC5E717
:106D3000FDF7AEFDACE7FDF7ABFD93E7FDF7A8FD72
:106D40007AE7FDF7A5FD60E7E0EF000050050020C1
:106D50000004002010B500210248FEF745FCC0B237
:106D600010BDC0460004002070B50400054DC31CD2
:106D70002A0000210448FEF79DFB2B6823802B6925
:106D8000A37070BD7C0500200004002070B50500D4
:106D90000C222900094801F0D7F8094C2000FEF721
:106DA00075FB0028FAD02B88064920000B60AB78D1
:106DB000054A0B61054BFEF709FB70BD400500203D
:106DC00000040020980500204305002078050020DD
:106DD00010B501241C70E023DB009C46029B61443B
:106DE0001180187010BDC0460023002806D14B78D2
:106DF000002B05D09B1A5A425341DBB21800704752
:106E00000123FBE70078012809D0022809D0803847
:106E10004342584101234042984381307047052046
:106E2000FCE70420FAE7C0465223F0B500262E4CBA
:106E30005B10944652272D4A9B19A04217D8A042B6
:106E400007D35C00E418A4001419A5788D420ED372
:106E500012D95F1EB7420DDBBB1B5D10AD196C0074
:106E60006419A400145B5B109B19A042E7D95E1C57
:106E7000B742F1DA0020F0BDA0880028FBD0431E05
:106E8000A168062B27D963460B439B0723D1624693
:106E90004B1CD31A022B1ED90023002285086646FC
:106EA0008C5801339BB2B45004329D42F7D1032277
:106EB000030093430242DED0CA5CF2545A1C92B2E1
:106EC0009042D8D98C5C02339BB2B4549842D2D948
:106ED000CA5CF254CFE700236446CA5CE254013333
:106EE0009AB29042F8D8C6E701620000747F0008A9
:106EF0005223F0B50026304C5B10944652272F4A9F
:106F00009B19A04217D8A04207D35C00E418A40044
:106F10001419A5788D420ED312D95F1EB7420DDB2E
:106F2000BB1B5D10AD196C006419A400145B5B10F1
:106F30009B19A042E7D95E1CB742F1DA0020F0BDF0
:106F4000A0880028FBD0431EA168062B2AD96346DF
:106F50000B439B0726D163460133CB1A022B21D961
:106F600000230022850864460133A4589BB28C504C
:106F700004329D42F7D10322030093430242DED044
:106F80006246D25CCA545A1C92B29042D7D9644627
:106F90000233A45C9BB28C549842D0D96246D25C36
:106FA000CA54CCE700236246D25CCA5401339AB279
:106FB0009042F8D8C3E7C04601620000747F000821
:106FC000054B1A6802701A68120A42705A88827059
:106FD000DB78C3707047C046480600207047C04643
:106FE0007047C0467047C0467047C0467047C046AD
:106FF0007047C0467047C04610B51F4B1A78824292
:1070000009D07F281FD0052826D0042804D00028C6
:107010000ED0812823D010BD0021184A18700020FE
:10702000117000F045FE0621022000F041FEF2E75B
:10703000124A00211070187000F03AFE062101205B
:1070400000F036FEE7E700210C4A11701870043199
:10705000002000F02DFEDEE70121084AF5E70021BF
:10706000064A18700020117000F022FE0021012055
:1070700000F01EFECFE7C046F8050020B105002055
:10708000074B1A78002A08D101321A70054A126893
:10709000516A054A928E52185A6000207047C046C5
:1070A000C80500208C040020FC050020FF2210B53C
:1070B000274B284C1A70207000283CD00621022053
:1070C00000F0F6FD0621012000F0F2FD0220FFF79E
:1070D0003FFD2078FFF768FD00201F49FFF7E8FC1F
:1070E00001201E49FFF7E4FC02201D49FFF7E0FCE8
:1070F00003201C49FFF7DCFC04201B49FFF7D8FCE8
:1071000005201A49FFF7D4FC06201949FFF7D0FCE7
:1071100007201849FFF7CCFC1748FFF7FFFA174B79
:10712000174A1A6004225A60033ADA6000221A6190
:107130005A619A6110BD0521023000F0B9FD0521A8
:10714000012000F0B5FD0521002000F0B1FDF1E7C0
:10715000F8050020F9050020C16F0008DD6F000868
:10716000E96F0008ED6F0008F16F0008F56F000887
:10717000E16F0008E56F00088C040020FC0500208A
:1071800091010100F0B54746CE4680B5C04F83B0AF
:107190003978002963D07F2961D0BE4D2B89002B1F
:1071A00062D1BD4B9846AB8F002B00D07BE0BB4C2F
:1071B000EB8F002B00D17BE043461B78052B00D0E2
:1071C00076E0B74B1B68596A6269914200D3EBE1E4
:1071D0004022AA5A002A00D076E04223EB5A002B24
:1071E00000D07BE02378002B06D0AD4B1B685A6A99
:1071F00063689A4200D3ADE0237B002B06D0A84BF6
:107200001B685A6A23699A4200D394E0237E002BBC
:1072100006D0A34B1B685A6AE3699A4200D3B7E0D1
:107220002423E25C002A06D09D4A1268516AA26AB1
:10723000914200D39DE043461E78FF2E00D1D1E05D
:10724000002E00D1B3E0812E00D14EE17F2E00D17F
:10725000D0E0052E00D1E4E0042E00D12EE103B0F1
:10726000C0BCB946B046F0BD8D4E8E4C33685A6AEC
:1072700023689A4200D294E78B4B9A1E9146864A25
:10728000107890465A1C00924A46FFF7A1FD4846E6
:10729000FFF77CFD2A893368596A93009B185B00CD
:1072A0005B1823607FE743461B78052B37D07B4C68
:1072B0004023EB5A002B00D18FE743461B78052B68
:1072C00000D08FE7764B1B68596A226A914200D33F
:1072D00041E14222AA5A002A07D183E743461B789C
:1072E000052B00D07EE76E4B1B685A6AE36A9A4210
:1072F00000D277E76D4B3978DE1E5A1E00910320CD
:107300003100FFF7DBFB3000FFF740FD4223EA5A74
:1073100093009B18E26A5B009B18E36262E7604B94
:107320005E4C1B68A268596A914200D328E1EA8F3B
:10733000002ABDD047E7002323735C4B3978DE1E5B
:1073400000915A1E31000120FFF7B8FB3000FFF713
:107350001DFD5BE700232370544B3978DE1E00913E
:107360005A1E31000020FFF7A9FB3000FFF70EFD89
:1073700042E70022E2544D4B3978DE1E00915A1E3E
:1073800031000320FFF79AFB3000FFF7FFFC52E7C4
:1073900000232376454B3978DE1E00915A1E3100BA
:1073A0000220FFF78BFB3000FFF7F0FC38E73E4B85
:1073B00039789C1E5A1C002000922200FFF708FD1D
:1073C0002000FFF7E3FC43461B787F2B00D146E704
:1073D000374B42461E707F2304210020137000F0BB
:1073E00067FC3CE7FFF7B6FC002800D08EE0434680
:1073F0001E7825E7FFF7AEFC002800D12FE72D4CC3
:107400002000FFF7B1FC2000FFF7A8FA00285ED0AB
:107410002000E21CA11CFFF7C9FA002800D11EE7DA
:1074200032E0FFF797FC002800D118E7214E30002A
:10743000FFF79AFC3000FFF7AFFA002800D1D6E042
:107440001D4A0021136802200133136000F030FC54
:10745000174B1A78002A00D101E72278002A07D1B9
:10746000013222700E4A1268516AAA8E5218626066
:1074700000221A7042460C4B10789C1E5A1C397818
:1074800000922200FFF7A4FC2000FFF77FFCE6E655
:10749000F9050020FC050020F8050020C8050020A3
:1074A0008C040020B8050020BE050020BF05002088
:1074B000B1050020BC050020B4050020FFF74AFC00
:1074C000002800D1CBE65F4C2000FFF74DFCE51C07
:1074D00029003A782088FFF787FC002878D0280018
:1074E000FFF790FCFFF788FDB9E60024564B00211A
:1074F0001C70434600201C7000F0DAFB06210120BE
:1075000000F0D6FB514B2C811C60A8E64D4E30009C
:10751000FFF72AFC3000FFF73FFA002800D166E7AA
:1075200041464B4A0E7813780133DBB21370022BBD
:1075300000D085E600231370812ED6D0424A002069
:10754000137081230B70002100F0B2FB0021012099
:1075500000F0AEFB4BE73F4B3978DE1E5A1E009120
:1075600002203100FFF7AAFA3000FFF70FFC40239A
:10757000EA5A93009B18226A5B009B1823622CE650
:10758000344B3978DE1E5A1E009100203100FFF77F
:1075900095FA3000FFF7FAFBAA8F93009B18A268B8
:1075A0005B009B18A36003E62A4B3978DE1E5A1E47
:1075B000009101203100FFF781FA3000FFF7E6FB70
:1075C000EA8F93009B1862695B009B1863616FE60A
:1075D0002000FFF7E1F9002800D140E61E4A002113
:1075E000136802200133136000F062FB37E63000BD
:1075F000FFF7B4F900280BD03000F21CB11CFFF7E4
:10760000D5F9002800D123E73000FFF7BFFB1FE7C3
:107610003000FFF7AFF9002804D03000F11CFFF76D
:1076200015FA15E7F31C19003A7830889946FFF7E8
:10763000DBFB002800D10BE74846FFF7E3FBFFF731
:10764000DBFC05E7BC050020B1050020B8050020E3
:10765000B0050020BF050020B40500201D4B10B56B
:107660001A681369DB0730D502235B4213610022DD
:1076700000200021184B5A609A60DA611A62174A9A
:10768000186159619862D9621368002B03D01449BC
:107690008C4663441360134B1A68002A16D1124CAF
:1076A00022787F2A01D0052A10D10421022000F07F
:1076B000FFFA23787F2B08D000220C4B04211A708C
:1076C0007F230020237000F0F3FA10BD00221A601F
:1076D000FBE7C0468C040020C8050020B805002048
:1076E000A115FFFFB4050020F8050020B10500201A
:1076F00030B58BB01022002105A800F0F9FB8021E5
:10770000284B09035A6928480A435A615A690024D8
:107710000A4080210092009A5A6989020A435A61FC
:107720005A6903250A4080210192019A5A69C902C7
:107730000A435A615A690A4080210292029A5A69A0
:1077400049030A435A615B690B400393039B174B40
:1077500004A9049303230793FEF76AF89020FF22FD
:10776000002304A9C0050492059306940795FEF72B
:107770005FF800230E4A04A90E480492059306946C
:107780000795FEF755F80422002304A90A4804923D
:10779000059306940795FEF74BF80848FEF7BEFFE1
:1077A0000BB030BD0010024000080048FC1F000074
:1077B000EF57000000040048000C0048D4040020EB
:1077C0000123F0B5C64600250026984600B5154CA5
:1077D000154FA1882068FEF737F9434258414346C8
:1077E000A840AB4006433340591E8B41E279DBB2DF
:1077F000A271E3719A4205D2E3680133E3603B680A
:1078000001333B60013510340437202DE1D1074BA3
:107810001A68B24202D01E60FFF732FC80BCB84644
:10782000F0BDC046140100204C0600204806002090
:107830000B4B10B51A681369DB070FD502238021A3
:1078400000205B421361074B8900074A5C181968E6
:107850001860103311800232A342F8D110BDC04627
:10786000D404002020010020CC06002010B584B0F4
:1078700000236A461A4CD37343210122200064334B
:10788000FEF794FD002801D004B010BD64230F2240
:10789000432100936A44633B2000FEF7C5FC6B461E
:1078A0000222DB7B5B00D9B21A4001238808184012
:1078B0000243C80818405200024308091840520009
:1078C00010434A091A40400002438809520003400D
:1078D00013435B00034AC9090B431370D4E7C04646
:1078E000280400200C070020064A43001818130043
:1078F00010B5C00012189188C0580022FEF7AAF8EF
:1079000010BDC04614030020064A43001818130097
:1079100010B5C00012189188C0580122FEF79AF8DD
:1079200010BDC04614030020F8B54400184E2418BA
:10793000E4003519EB88002B0ED10133EB80FDF705
:10794000EBF80122A988E860A059FEF783F8FDF75B
:10795000E3F8C8302861F8BD2F69FDF7DDF88742EC
:10796000F9D8EB88012B04D0022BF4D10023EB8053
:10797000F1E7FA22920094460133EB802B69002252
:107980006344A988A0592B61FEF764F8E3E7C04679
:1079900014030020F8B54400224E2418E4003519E1
:1079A000EB88002B0ED10133EB80FDF7B5F80122F7
:1079B000A988E860A059FEF74DF8FDF7ADF8C8308A
:1079C0002861F8BD2F69FDF7A7F88742F9D8EB8841
:1079D000012B08D0022B11D0032B1AD0042BF0D18D
:1079E0000023EB80EDE70133EB802B69C8330022E5
:1079F000A988A0592B61FEF72DF8E2E70133EB804F
:107A00002B690122C833A988A0592B61FEF722F8FF
:107A1000D7E7FA22920094460133EB802B69634446
:107A2000E5E7C04614030020F8B54746CE464300BC
:107A30001D1880B5334FED007E199846F388040079
:107A4000002B11D10133F380FDF766F80122B188D4
:107A5000F0607859FDF7FEFFFDF75EF8C830306141
:107A6000C0BCB946B046F8BD33699946FDF754F835
:107A70008145F5D8F388012B05D0062BF0D8224A92
:107A80009B00D3589F460133F38033690022C833EB
:107A9000B18878593361FDF7DDFFE1E7230000226B
:107AA0004344DB00FB18DA80DAE7FA21062289007A
:107AB0008C464444E4003B19DA801A6962441A6136
:107AC000998800223859FDF7C5FFC9E705224444CB
:107AD000E4003B19DA801A699988C8321A6138596A
:107AE0000122FDF7B7FFBBE704224444E4003B1941
:107AF000DA801A69C832E2E74444E40003223B1901
:107B0000E8E7C0461403002058830008F8B5440095
:107B1000194E2418E4003519EB88002B0ED10133DF
:107B2000EB80FCF7F9FF0122A988E860A059FDF776
:107B300091FFFCF7F1FFC8302861F8BD2F69FCF711
:107B4000EBFF8742F9D82F69FCF7E6FF8742F4D8AC
:107B5000EB88012B04D0022BEFD10023EB80ECE764
:107B60000133EB802B690022C833A988A0592B610F
:107B7000FDF770FFE1E7C04614030020F8B54400AC
:107B8000194E2418E4003519EB88002B0ED101336F
:107B9000EB80FCF7C1FF0122A988E860A059FDF73E
:107BA00059FFFCF7B9FF32302861F8BD2F69FCF7A7
:107BB000B3FF8742F9D82F69FCF7AEFF8742F4D8AC
:107BC000EB88012B04D0022BEFD10023EB80ECE7F4
:107BD0000133EB802B6900223233A988A0592B6135
:107BE000FDF738FFE1E7C04614030020F0B589B087
:107BF0001422002102A800F07BF980211F4B89028A
:107C00005A691F4C0A435A615A6920000A40802170
:107C10000092009A5A69C9020A435A615B690022BC
:107C20000B40802101934900019B9025FDF712FF35
:107C300080212000ED0500220902FDF70BFF28003E
:107C400000221021FDF706FF8022012300260027D5
:107C50002800520002A90292039304960597FDF7AB
:107C6000E7FD0123074A200002A90292039304962C
:107C70000597FDF7DDFD09B0F0BDC04600100240DC
:107C8000000400481080000010B5084C6369002B08
:107C900001D000209847E36A002B01D001209847CB
:107CA000636C002B01D00220984710BD1403002004
:107CB00030B5002542001A4C1318DB00E318197286
:107CC000DD80002902D1174A5A6130BD0629FCD84F
:107CD000154B89005B589F461218144BD200A4180C
:107CE0006361F2E71218124BD200A2185361ECE75D
:107CF0001218104BD200A2185361E6E712180E4B6F
:107D0000D200A2185361E0E712180C4BD200A2185F
:107D10005361DAE712180A4BD200A2185361D4E774
:107D200014030020E978000874830008097900082A
:107D30002979000895790008297A00080D7B000848
:107D40007D7B00080121224A10B513680B431360A4
:107D500013681942FCD080231E4A5B0211680B4352
:107D600080211360890213680B42FCD051681A4BC2
:107D70001940D0231B030B430F215360D36A8B435D
:107D8000D362802311685B040B4380211360114A86
:107D9000890413680B42FCD0F02153688B43536075
:107DA00053680E490B400321536053688B430139DC
:107DB0000B4353600C2207494B681340082BFBD13F
:107DC0000748FEF7C5FD0320FCF764FE10BDC04662
:107DD0000020024000100240FF7FC2FFFFF8FFFFBB
:107DE000005A6202224B10B51A680023214C82B05F
:107DF00001CA990001336050302BF9D101240320CE
:107E00001D4B9A6922439A619A6922400192019A14
:107E10001A4A1168814311601168014311609A691F
:107E2000A2439A61FCF75CFE62B6FFF78BFFFCF79A
:107E300069FCFCF79FFDFCF75BFDFCF77BFCFCF7A6
:107E40008DFBFCF7F5FC02220D490E48FCF7FEFF06
:107E500010220D4B5A700D4B0D4ADC601A60042243
:107E60005A6000221A615A619A6102B010BDC04680
:107E70005C030020000000200010024000000140D0
:107E80001C070020C00300200C070020FC05002078
:107E90009101010070B51048FEF7B6FBFCF73CFEFF
:107EA0000E4A1368984215D3FA2189008C460C4E6D
:107EB000634413607088FCF7F1FA0A49FCF7B0F9E3
:107EC000041C3088FCF7EAFA0749FCF7A9F9074DCA
:107ED0006860AC6070BDC0467C04002018070020BC
:107EE0001C0700203333D33A66661E3C0C07002083
:107EF00003008218934200D1704719700133F9E7EB
:107F000070B500260C4C0D4D641BA410A64209D17F
:107F1000002600F023F80A4C0A4D641BA410A64268
:107F200005D170BDB300EB5898470136EEE7B300BA
:107F3000EB5898470136F2E79083000890830008D9
:107F40009483000890830008002310B59A4200D162
:107F500010BDCC5CC4540133F8E70000F8B5C0464E
:107F6000F8BC08BC9E467047F8B5C046F8BC08BCD3
:047F70009E46704772
:107F74000010000004000000FC05002017100000A1
:107F84000200000004060020181000000400000095
:107F9400000600201810010004000000080600205C
:107FA40018100200040000000C0600201810030042
:107FB4000400000010060020181004000400000053
:107FC400140600200018000001000000180600201C
:107FD40000180100040000001C0600200018020024
:107FE400010000002C06002000180300020000001D
:107FF40030060020001805000200000038060020AA
:10800400001A00000100000040060020001A0100D0
:10801400040000004406002000620000010000008B
:108024000D07002000620100020000000E0700207E
:108034000062020004000000100700200062030038
:108044000400000014070020006204000400000083
:10805400480600200162000002000000CC06002057
:108064000162010002000000CE060020016202004D
:1080740002000000D006002001620300020000009C
:10808400D20600200162040002000000D406002091
:108094000162050002000000D6060020016206000D
:1080A40002000000D8060020016207000200000060
:1080B400DA0600200162080002000000DC0600204D
:1080C4000162090002000000DE06002001620A00CD
:1080D40002000000E006002001620B000200000024
:1080E400E206002001620C0002000000E406002009
:1080F40001620D0002000000E606002001620E008D
:1081040002000000E806002001620F0002000000E7
:10811400EA0600200162100002000000EC060020C4
:108124000162110002000000EE060020016212004C
:1081340002000000F00600200162130002000000AB
:10814400F20600200162140002000000F406002080
:108154000162150002000000F6060020016216000C
:1081640002000000F806002001621700020000006F
:10817400FA0600200162180002000000FC0600203C
:108184000162190002000000FE06002001621A00CC
:10819400020000000007002001621B000200000032
:1081A4000207002001621C000200000004070020F6
:1081B40001621D00020000000607002001621E008B
:1081C400020000000807002001621F0002000000F6
:1081D4000A07002002620000040000004C06002090
:1081E4000262010004000000500600200262020046
:1081F4000400000054060020026203000400000092
:108204005806002002620400040000005C060020FE
:1082140002620500040000006006002002620600FD
:10822400040000006406002002620700040000004D
:108234006806002002620800040000006C060020AA
:1082440002620900040000007006002002620A00B5
:10825400040000007406002002620B000400000009
:108264007806002002620C00040000007C06002056
:1082740002620D00040000008006002002620E006D
:10828400040000008406002002620F0004000000C5
:108294008806002002621000040000008C06002002
:1082A4000262110004000000900600200262120025
:1082B4000400000094060020026213000400000081
:1082C4009806002002621400040000009C060020AE
:1082D4000262150004000000A006002002621600DD
:1082E40004000000A406002002621700040000003D
:1082F400A80600200262180004000000AC0600205A
:108304000262190004000000B006002002621A0094
:1083140004000000B406002002621B0004000000F8
:10832400B806002002621C0004000000BC06002005
:1083340002621D0004000000C006002002621E004C
:1083440004000000C406002002621F0004000000B4
:10835400C8060020607A0008607A0008F87A0008ED
:10836400E87A0008CC7A0008AA7A00089C7A000807
:10837400CA7C0008E47C0008F07C0008FC7C00084F
:0C838400087D0008147D0008D87C00086B
:04839000E9400008B8
:04839400C1400008DC
:1083980000127A0001000000040000000200000042
:1083A80000000A00000070000200000000000F003A
:1083B800000070000400000000000A0000007000C7
:1083C8000800000000000A00000070001000000013
:1083D80000000A00000070001000000000000F00FC
:1083E80000007000000800482000000000000000A5
:1083F8000000000000040048020000000000000027
:108408000000000000040048010000000000000017
:1084180000000000000800481000000000000000F4
:1084280000000000000000482000000000000000DC
:1084380000000000000000481000000000000000DC
:10844800000000000000004840000000000000009C
:10845800000000000000004880000000000000004C
:108468000000000000080048400000000000000074
:108478000000000000040048001000000000000098
:108488000000000000040048000400000000000094
:108498000000000000040048040000000000000084
:1084A8000000000000040048004000000000000038
:1084B80000000000000800488000000000000000E4
:1084C8000000000000080048000100000000000053
:1084D8000000000000080048000200000000000042
:1084E8000000000000040048000100000000000037
:1084F8000000000000040048000200000000000026
:10850800000000000008004808000000000000000B
:1085180000000000000800480400000000000000FF
:1085280000000000000000480800000000000000F3
:1085380000000000000000480400000000000000E7
:1085480000000000000000480100000000000000DA
:1085580000000000000000480200000000000000C9
:1085680000000000000800480010000000000000A3
:10857800000000000008004800080000000000009B
:1085880000000000000C004804000000000000008B
:10859800000000000008004800040000000000007F
:1085A8000000000000040048400000000000000037
:1085B8000000000000040048200000000000000047
:1085C80000000000000400488000000000000000D7
:1085D800000000000004004808000000000000003F
:1085E8000000000000040048100000000000000027
:1085F8000000000000000000000000000004004827
:1086080000800000000000000000000000000000E2
:108618000000000000000048000100000000000009
:1086280000000000000000000000000000400008FA
:0400000508004A4164
:00000001FF
