:020000040800F2
:100000000040002091120008891000088B100008A1
:1000100000000000000000000000000000000000E0
:100020000000000000000000000000008D1000082B
:1000300000000000000000008F1000089110000870
:10004000E1120008E1120008E1120008E1120008C4
:10005000E1120008E1120008E1120008E1120008B4
:10006000E1120008E112000819340008E11200084A
:10007000E1120008E1120008E1120008E112000894
:1000800099100008E112000879320008E112000816
:10009000E1120008E1120008E1120008E112000874
:1000A000E1120008A9100008E1120008E11200089E
:1000B000E1120008E1120008E1120008E112000854
:1000C00010B5064C2378002B07D1054B002B02D02E
:1000D000044800E000BF0123237010BD9C000020F5
:1000E00000000000883B0008044B10B5002B03D033
:1000F0000349044800E000BF10BDC04600000000F6
:10010000A0000020883B000802B47146490849005D
:10011000095C49008E4402BC7047C0460022430877
:100120008B4274D303098B425FD3030A8B4244D3BF
:10013000030B8B4228D3030C8B420DD3FF22090201
:1001400012BA030C8B4202D31212090265D0030BC0
:100150008B4219D300E0090AC30B8B4201D3CB03B6
:10016000C01A5241830B8B4201D38B03C01A5241F8
:10017000430B8B4201D34B03C01A5241030B8B42FA
:1001800001D30B03C01A5241C30A8B4201D3CB02E5
:10019000C01A5241830A8B4201D38B02C01A5241CA
:1001A000430A8B4201D34B02C01A5241030A8B42CD
:1001B00001D30B02C01A5241CDD2C3098B4201D3E5
:1001C000CB01C01A524183098B4201D38B01C01A63
:1001D000524143098B4201D34B01C01A52410309DA
:1001E0008B4201D30B01C01A5241C3088B4201D389
:1001F000CB00C01A524183088B4201D38B00C01A36
:10020000524143088B4201D34B00C01A5241411A5C
:1002100000D20146524110467047FFE701B5002069
:1002200000F006F802BDC0460029F7D076E7704717
:100230007047C0469E2110B5C905041C00F0A6FCFD
:10024000002803D1201C00F00FFC10BD9E21201CB3
:10025000C90500F065FA00F007FC80231B069C46E8
:100260006044F2E7F0B54F464646D6464402C0B574
:1002700047000E1C640A3F0EC50F002F3CD0FF2F15
:1002800042D00023802299469A46E400D2041443C7
:100290007F3F73025B0A984673001B0EF60F002B1C
:1002A0001BD0FF2B13D042468021D200C90411433A
:1002B000884600207F3B2900FF1A4B467140C9B297
:1002C0000F2B00D9B5E0744A9B00D3589F46434694
:1002D000002B3FD1FF3F023303E04346002B2DD1DB
:1002E000012329004A467140C9B21A430E2A38D860
:1002F0006A48920082589746002C13D104239946ED
:10030000033B00279A46C4E7002C05D108239946F1
:10031000063BFF279A46BCE70C239946093BFF277B
:100320009A46B6E7200000F03BFC7627431F9C402E
:1003300000237F4299469A463F1AAAE7404600F0BA
:100340002FFC4246431F9A4076235B421B1A90467D
:100350000020B0E703234A461A4391460320FC33AA
:10036000A9E70D00FF200022C005ED071043284338
:10037000E0BCBA46B146A846F0BD0D000020002200
:10038000F2E75346022BEDD0032B33D0A046012BCE
:1003900005D100200022E7E7350003287AD03B0092
:1003A0007F33002B2DDD4246520707D00F224146F6
:1003B0000A40042A02D004229446E0444246120134
:1003C00005D54246364B1A403B0090468033FE2B03
:1003D000C8DC42469201520AD8B2C5E78022002505
:1003E000FF20D203C0E78022D203144202D043464A
:1003F000134249D08022D20322435202FF20520AE4
:10040000B2E70122D31A1B2BC3DC4246DA40434633
:100410009E37BB40591E8B411A43530704D00F230C
:100420001340042B00D00432530129D501200022AF
:100430009AE7424663015501AB4215D21B200022C8
:10044000013F01261C0052005B00002C01DB9D4295
:1004500001D85B1B324301380028F3D1581E834179
:10046000134398460D009AE71A2001225B1BE8E728
:10047000023B5A4253415B4235000022D8B273E737
:1004800092010020520A6FE71A4352023500FF2002
:10049000520A69E74446ADE7A03B0008E03B00088C
:1004A000FFFFFFF7F0B54F464646D64643025B0ACC
:1004B0004500C0B599460F1C2D0EC60F002D00D16A
:1004C00088E0FF2D00D18DE08022DB00D2041A43AA
:1004D0000023914698469A467F3D7C027B00640A41
:1004E0001B0EFF0F002B68D0FF2B21D08022E400D1
:1004F000D204144342467F3B5B1900215D1C0A2A4B
:100500002EDC7E404246022A23DC013A012A00D931
:10051000BDE002296ED001292CD100200022C005A7
:10052000F60710433043E0BCBA46B146A846F0BDDA
:100530002B00FF33002C65D00322414611433200CB
:10054000013588467A40FF350A2900DDD8E01600DB
:100550000321404601228240A620C000024220D052
:100560005346022B46D0032B00D1BBE051464C46EC
:100570000129D2D02B007F33002B70DD620704D01D
:100580000F222240042A00D00434220103D5634BF9
:100590001C402B008033FE2B2CDCA201520AD8B267
:1005A000BDE790208000024227D1B938FF381042C1
:1005B0006DD03E00A1468A46D2E7002C41D10123EE
:1005C00042461A4390462B00424601215D1C0A2AEE
:1005D00097DDC5E7002B26D104239846033B002571
:1005E0009A467AE7002B18D108239846063BFF2548
:1005F0009A4672E7FF20002291E780220026FF2022
:10060000D2038CE741460222013511438846FF356B
:100610000A29A5DC02217E4074E70C239846093B99
:10062000FF259A4659E7180000F0BAFA4A46431FD8
:1006300076259A4000236D42914698469A462D1A97
:100640004BE7200000F0ACFA4246431F9C402B1AB7
:10065000763B00215D1C0A2A00DC52E780E701227C
:10066000D31A1B2B00DD58E79E352200AC40DA4040
:10067000631E9C412243530704D00F231340042BD5
:1006800000D00432530137D50120002247E7210C66
:100690004A462404240C2700100C1204120C444374
:1006A0005743484351433A0C09195218944203D90D
:1006B000802149028C4660443F0411043F0CC91953
:1006C0008C01671EBC41120C890E12180C4392015A
:1006D000144312010ED5012362081C40144349E75C
:1006E0003E00A14680224B46D2031A435202FF200D
:1006F000520A14E71D003DE792010020520A0EE75E
:100700000F29EDD180224B46D2031342EAD0144286
:10071000E8D13E00FF20224301E7C046FFFFFFF77C
:10072000F8B54746CE464E0243024500720AC40F52
:10073000480080B594465F0A2D0E9B09000EC90F34
:10074000B609FF2824D0012251402A1A8C420FD02A
:10075000002A00DC6AE1002835D1002E00D1A2E099
:10076000511E012A00D124E1FF2A21D00A002FE0E6
:10077000002A00DC67E100285ED0FF2D18D0802120
:10078000C9040E431B2A00DC76E02A00013332E064
:100790002A00FF3A9146002E42D08C4255D04A465C
:1007A000002A00D19CE0002D00D177E00C0033003E
:1007B000DB08002B00D16EE08022D20313435B02E2
:1007C000FF205B0A24E0FF2DF2D08021C9040E43F4
:1007D00001211B2A08DC31002020D140821A9640DA
:1007E0003200501E824111435B1A5A0160D4072126
:1007F0002A00194057D00F211940042900D0043392
:10080000590150D5501CFE2A45D09B01C0B25B0A4D
:10081000C0051843E4072043C0BCB946B046F8BD44
:10082000012251408C42BAD14A46002A10D0002DF4
:1008300000D198E00023BBE7002E34D0511E012ADE
:100840006ED0FF2AB4D00A009CE7002A00D088E0CE
:10085000FE206A1C104200D092E0002D00D0A4E0DF
:10086000002B00D1CBE0002E00D0CAE00022DB0834
:100870005B025B0AD0B2CBE731002020D140821A64
:1008800096403200501E82410A439B185A01AED551
:100890006A1CFE2D4AD1FF200023B9E7FF22002B5E
:1008A0004BD10C003300DB08FF2A00D181E7DFE7E2
:1008B0009F01BF09380000F073F905388740854271
:1008C00021DC3B002021421B0132D3408A1A974091
:1008D0007A1E974100223B43590700D08BE78FE7F0
:1008E000FE206A1C104212D1002D52D1002B7CD068
:1008F000002EBBD09A1B500100D48BE001240022B3
:10090000F31A0C40E8E7564B2A1A3B40E4E79F1BDA
:100910007A0146D4002FCDD100240020002377E7B0
:100920009B1901250132590100D460E701214D488E
:1009300019405B0803400B43CEE7571E012A5AD0EB
:100940000C00FF2A33D001221B2F07DC2021C91BFA
:100950001A008B40FA40591E8B411A430500B31A06
:1009600043E7002D23D1FF22002B9BD0511E012AEB
:10097000D6D0FF2A1BD01B292CDD0200731C3AE7BE
:10098000FF2A88D09B195B08590700D033E7DB08A2
:100990006EE7002B10D1002E43D0012433000C4011
:1009A00006E70124F71A0C4084E7002B04D133003A
:1009B000FEE601259B1B18E7002E00D1F8E68022F9
:1009C000D203974204D3944502D2012433000C4051
:1009D000DB08F1E61A002025CA40691A8B40591E2F
:1009E0008B41134305009B1950E7002E94D001243E
:1009F00033000C403AE70C000125F31AF5E633000A
:100A000034E79B1900225901C1D5154A1340DB0870
:100A100001222DE7002A00D17EE713000022DB0827
:100A200026E780230024FF20DB03F1E6002A00D123
:100A300056E7471B3A00002D00D130E78022D20450
:100A40000C0013437FE7002A00D101E7411B002D72
:100A500001D10A0088E78022D20413438BE7C04605
:100A6000FFFFFFFBFFFFFF7D41024200C30F490A6A
:100A70000020120E7E2A03DD9D2A02DD094A981805
:100A80007047802000040143952A07DC9620821AD3
:100A9000D1404842002BF3D10800F1E7963A91404B
:100AA000F7E7C046FFFFFF7F70B5041E0ED000F0D1
:100AB00077F89E2301001B1A962B0CDC08282FD0F8
:100AC00008398C406402640AD8B201E00020002496
:100AD000C005204370BD992B16DC421F052800D0AD
:100AE0009440220010480240650709D00F252C4091
:100AF000042C05D00432540102D59F2302405B1A16
:100B00009201540AD8B2E3E7020020001B32904061
:100B10000200501E82410520401AC4401443E0E701
:100B200064029620640AD3E7FFFFFFFB84460800B7
:100B30006146FFE71FB500F0C9F8002801D4002185
:100B4000C8421FBD10B500F049F84042013010BD49
:100B500010B500F0BBF8002801DB002010BD01201B
:100B600010BDC04610B500F0B1F8002801DD00202E
:100B700010BD012010BDC04610B500F057F8002888
:100B800001DC002010BD012010BDC04610B500F0F2
:100B90004DF8002801DA002010BD012010BDC0462C
:100BA0001C2101231B04984201D3000C10391B0A9D
:100BB000984201D3000A08391B09984201D3000961
:100BC000043902A2105C40187047C04604030202B8
:100BD00001010101000000000000000070B54200AA
:100BE0004E024C0045026D0A120EC30F760A240E07
:100BF000C90FFF2A10D0FF2C0CD00120A2420AD12D
:100C0000B54208D18B420FD0002A04D12800431EE0
:100C1000984100E0012070BD0120FF2CFBD135433D
:100C2000F9D14B401800F6E70020F4E730B5420058
:100C300044024D02C30F4800640A120E6D0A000EF2
:100C4000C90FFF2A19D0FF280BD0002A1ED1002877
:100C50000BD1002D27D0002C34D100292FD0080033
:100C600030BD002D28D1002A01D1002CF5D08B42B7
:100C700007D1002B23D01800F2E7002C1CD1FF284D
:100C800014D0581E022318400138E9E70028F8D094
:100C90008B42F6D18242F4DCEBDBAC42F1D800208F
:100CA000AC42DDD2E5E7002CDAD0EAE7002D03D133
:100CB0008B42E6D10020D3E702204042D0E701205A
:100CC0004042CDE78B42E8D0DBE7C04630B542007A
:100CD00044024D02C30F4800640A120E6D0A000E52
:100CE000C90FFF2A1AD0FF280ED0002A1ED10028D3
:100CF0000ED1002D2AD0002C0CD08B421DD0581EB6
:100D000002231840013810E0002D0DD1002A20D117
:100D1000002C1ED1002923D0080006E0002C03D1AE
:100D2000FF28ECD1002D17D0022030BD0028E6D0DE
:100D30008B42E4D18242E2DC04DBAC42DFD800200B
:100D4000AC42F2D2002B0BD01800EEE7002CECD016
:100D5000D5E78B42D3D1F5E700208B42E5D0CEE733
:100D600001204042E1E7C0460D480E4B10B503603C
:100D70000623436000238360C360C0231B03036119
:100D800080235B03436180235B0083610223FF3385
:100D9000838300F0EDFA002801D002F0ABFE10BD15
:100DA000B80000200064004010B5040088B0142290
:100DB000002103A802F0B2FE134B22689A4220D110
:100DC0008021124B8904DA6990200A43DA61DA69DA
:100DD000C0050A4080210192019A5A6989020A439A
:100DE0005A615B690B400293029BC0235B01039332
:100DF000022304930133069303A90133079300F000
:100E0000C5FD08B010BDC04600640040001002409F
:100E100007B50121084B0A205A690A435A6100228A
:100E20005B690B4001931100019B00F0CFFC0A208D
:100E300000F0F6FC07BDC04600100240F0B589B0D6
:100E40001422002103A802F069FE8021234BC9036C
:100E50005A6986240A435A615A6990250A408021BA
:100E60000092009A5A6989020A435A615A69ED054B
:100E70000A4080210192019A5A69C9020A435A61C3
:100E80005B69174E0B40640021002800029300228A
:100E9000029B00F03FFE00223000182100F03AFED5
:100EA000012703940024280003A9049705940694BD
:100EB00000F06CFD862328001B0203A90393049411
:100EC000059400F063FD1823300003A903930497F1
:100ED0000594069400F05AFD09B0F0BD00100240E0
:100EE000000400480748084B10B503600123436025
:100EF000064BC360836000F013FE002801D002F0AF
:100F0000F9FD10BDE000002000300040C3090000E2
:100F100010B502F0D9FD02F001FD02F083FB02F0F2
:100F2000E7F90C4B987901F095FF0121002002F0C0
:100F30003BFD0621012002F037FD01F065FF052889
:100F400001D102F0FBF902F01BFD01F0EFFF02F00E
:100F5000DDFDF2E7B40400201148124B10B5036028
:100F600082235B0043608023DB0080228360F023C8
:100F7000D2021B01C36082610023302203614361FE
:100F8000C261036243628362293A03630833C26227
:100F9000436300F027FF002801D002F0ABFD10BD35
:100FA000340100200030014030B5050089B0142222
:100FB000002103A802F0B2FD234B2A689A4240D1D7
:100FC0008021224B49019A6990200A439A619A69CB
:100FD000C0050A4080210192019A5A6989020A4398
:100FE0005A615B690B400293029B702303936E3B33
:100FF000049303A90133069300F0C8FC144C154B6D
:101000002000236000236360A3608033E3608033AB
:1010100023618023DB0063612023A36180239B0184
:10102000E36100F023FC002801D002F063FD002200
:1010300019201100AC65656200F0C8FB192000F0B2
:10104000EFFB09B030BDC046003001400010024047
:10105000F00000201C00024001210A4B82B09A6976
:101060000A439A619A690A4080210092009ADA69DB
:1010700049050A43DA61DB690B400193019B02B029
:101080007047C04600100240FEE7FEE77047704719
:1010900010B500F05BF910BD10B5024801F0F0F991
:1010A00010BDC046E001002010B5024801F026F94D
:1010B00010BDC046340100207047000010B586B056
:1010C0001022002102A802F029FD08220021684612
:1010D00002F024FD8023164CDB052360154B012212
:1010E000636000235242A360236120008033E260EA
:1010F000A36101F0B7FA002801D002F0FBFC8023C5
:1011000020005B0102A9029301F0E0FA002801D05F
:1011100002F0F0FC0023694620000093019301F0E7
:101120006BFB002801D002F0E5FC06B010BDC04604
:1011300028020020E703000010B586B0102200212D
:1011400002A802F0EBFC08220021684602F0E6FC4F
:10115000154C164B164A2360164B20006360002383
:10116000A36023618033E260A36101F07BFA002871
:1011700001D002F0BFFC802320005B0102A9029392
:1011800001F0A4FA002801D002F0B4FC0023694663
:1011900020000093019301F02FFB002801D002F002
:1011A000A9FC06B010BDC046E001002000040040CC
:1011B0000F270000BF12000037B508220021684643
:1011C00002F0ACFC0E4C0F4B002523600E4B2000B0
:1011D00063600E4BA560E3608023A36101F042FAD7
:1011E000A84201D002F086FC6946200000950195D6
:1011F00001F002FB002801D002F07CFC37BDC046A4
:101200009801002000140040BF1200005FEA0000B7
:101210001FB580220368D20593420AD10121194BE0
:10122000DA690A43DA61DB690B400193019B05B07F
:1012300000BD154A934211D10221124B1020DA69E8
:101240000A43DA610022DB690B4002931100029B22
:1012500000F0BCFA102000F0E3FAE8E70B4A9342F2
:10126000E5D12021074B1220DA690A43DA61002216
:10127000DB690B4003931100039B00F0A7FA1220D7
:10128000E9E7C0460010024000040040001400409E
:101290000D488546FFF710FF0C480D490D4A002305
:1012A00002E0D458C4500433C4188C42F9D30A4A1B
:1012B0000A4C002301E013600432A242FBD302F087
:1012C00035FCFFF725FEFEE700400020000000206F
:1012D0009C000020AC3E00089C000020C0040020C0
:1012E000FEE7000070B50500FA200D4B800019786C
:1012F000FEF714FF0B4C01002068FEF70FFF00F013
:101300009BFA04000120002C09D1032D07D80238D4
:101310002200290000F05AFA2000034B1D6070BD26
:101320000400002000000020080000201023064ACE
:1013300010B5116803200B431360FFF7D3FFFFF7CD
:101340008BFE002010BDC04600200240034A044B23
:1013500011681B785B1813607047C046700200204C
:1013600004000020014B18687047C046700200203E
:10137000F8B5041E62D0451CEB7F002B01D1FFF7AE
:1013800013FD0127226813683B431360FFF7EAFF50
:10139000060023685A683A4244D002271A68BA43C2
:1013A0001A60FFF7DFFF060023685A683A4247D108
:1013B000217E8022012949D119680A431A60617E81
:1013C0004022012946D119680A431A60A17E2022D1
:1013D000012943D119680A431A60E17E10220129CC
:1013E00040D1196891431960217F082201293DD11C
:1013F00019680A431A60617F042201293AD11968E9
:101400000A431A60E168A26800200A4321690A437E
:1014100061690A43616801390A43DA610123606244
:10142000EB770CE0FFF79EFF801B0A28B1D98023E1
:10143000626A9B02134363620523EB770120F8BDC8
:10144000FFF790FF801B0A28AED9F0E71968914397
:101450001960B4E7196891431960B7E719689143B7
:101460001960BAE719680A431A60BDE71968914321
:101470001960C0E7196891431960C3E770B5421C51
:10148000D27F0368013A012A64D880240120A40095
:101490001A59872602431A514A69E23CFF3C14401C
:1014A000A040B6009C59C54384439C51CC69002C94
:1014B00035D1103E9C59D2002C409C51CC684E68CE
:1014C0002404B6B2344390269A18B60094518C681E
:1014D0000E682404B6B234439126B600945181229A
:1014E0008C699200002C2FD19C582C409C50852256
:1014F0000C699200002C2AD19C582C409C500A6AFE
:10150000012A04D1872189005A5802435A50802168
:10151000012089005A58824300205A5070BD012C86
:10152000DDD18326B6009C59D20004439C510C683F
:101530004E682404B6B2344390269A18B6009451EB
:101540008C68CE682404C5E79C580443CEE79C58B9
:101550000443D3E78023426ADB0213434362012042
:10156000DCE7F8B5471CFB7F0400DDB2012B1ED180
:101570000133FB7702681368AB431360FFF7F2FE99
:10158000060023685B68180028402B4201D1606286
:10159000F8BDFFF7E7FE801B0A28F2D98023626AB4
:1015A0009B02134363620523FB770120F0E780234E
:1015B000426A1B0313434362F7E7F0B5441CE67F1E
:1015C0000568013EAC68012E50D8E026760534420D
:1015D00045D0A0010124800F84401C6004008F6866
:1015E000CE681834002F35D10B685B0533432401D6
:1015F0006351C2230E6900012C185B00E650097D7F
:10160000012903D1E658FF313143E1505179137973
:101610000902194393791B040B43D1790906194335
:101620002B1818008D30FF300160507811780002BF
:1016300008439178D27809040143120689330A439A
:10164000FF331A60C022012300205200A1580B432F
:10165000A350F0BD4B683743DB003B43C7E7802313
:10166000426A9B03134343620120F2E78023426AEC
:10167000DB02F7E7421CD27F0300013A0020012A77
:101680000BD81A689068936840011B01DB0FC00FEC
:10169000C0189368DB00DB0FC0187047F7B5441C17
:1016A0000191E47F013C012C00D97AE00324056814
:1016B000002909D1EE68264208D18023426A9B03A3
:1016C000134343620120FEBD2E69F4E7D826019939
:1016D00076000C0104212C19A7590F40976058D1AE
:1016E000A7597F0D17600227A6593E40D6600826ED
:1016F000B337FF37E159314202D10F21E6590E408D
:101700001661E659E459360A240CF6B25461966122
:10171000019A01991201AD18B935FF352C681C707A
:101720000468A418B934FF342468240A5C7004687F
:10173000A418B934FF342468240C9C700468A418DD
:10174000B934FF342468240EDC700468A418BD3456
:10175000FF3424681C710468A418BD34FF34246865
:10176000240A5C710468A418BD34FF342468240C76
:101770009C710468A218BD32FF321268120EDA7131
:1017800002682023002908D1D1680B43D3600020D0
:1017900099E7A759FF085760A5E711690B43136143
:1017A000F5E78023426ADB028AE7421CD27F03000E
:1017B000013A0020012A05D81B680330002902D114
:1017C000DB68184070471B69FBE7000010B5FF2479
:1017D00003220B0021000240D20091409B012340D4
:1017E000C943934000280ADBC0240B4A80088000CC
:1017F0008018A40002590A401343035110BD0F2260
:1018000010400838054A800880008018C2691140DD
:101810001943C161F2E7C04600E100E000ED00E0DD
:10182000002805DB1F2318401E3B8340014A13603C
:101830007047C04600E100E08022431E52040120B0
:1018400093420DD2C021074A07485360036A090634
:101850001B021B0A0B4303620020072390601360E6
:101860007047C04610E000E000ED00E070B50400F5
:101870000120002C24D00223A51CEB772068114BFB
:101880000268A1681A4063680B43E1680B43216951
:101890000B4361690B43A1690B43E1690B4313439C
:1018A0000360094B1421C018FEF738FC074B800079
:1018B0002064E36300200123A063E418EB77E07762
:1018C00070BDC0460FC0FFFFF8FFFDBF0000024023
:1018D000F7B5441C0193E57F012D33D00125871C0A
:1018E000E577FD7F0026AC466346EDB2012B28D19B
:1018F0000224FC77046886632668076CAE43BD400B
:101900002660019BC66B756063604368102B0ED127
:10191000A260E160C36A2268002B0BD00E23134340
:10192000236001230020226813432360FEBDA160D1
:10193000E260EFE70A231343042223602368934302
:10194000EEE7E6770220F1E770B5841CE37F022B17
:1019500003D004238363012070BD0E2103681A683D
:101960008A431A6001221500196891431960016CBD
:10197000C36B8D405D60E27783180022DA77436B9A
:10198000934200D098470020E6E700000023F0B51E
:1019900087B00A681400DC4001D107B0F0BD012512
:1019A00014009D402C4000942A4200D19CE04A68DB
:1019B0005F0094460322644622400324BC40E44373
:1019C0000194541E012C2ED88668019C2640CC68B8
:1019D000BC403443846044680126AC43250064461F
:1019E000240934409C402C434460C568019C254038
:1019F0008C68BC402C43C460022A16D107250F26F0
:101A00001D40AD00AE40DC08A40004190294246A15
:101A100003962600039CA64334000E69AE4026437D
:101A2000029C266201E0032ADFD1BA400468019DCE
:101A300025402A43C02402606246A402224253D0B9
:101A400001252A4A90279469FF052C4394619269E5
:101A50009C082A400592059A254AA400A4180F2242
:101A600002351D40AD00AA40A66896430022B84248
:101A700010D0204F0132B8420CD01F4F0132B84273
:101A800008D01E4F0132B84204D01D4A8218571E9A
:101A9000BA410432AA4067463243A260194A009C08
:101AA0009668009DE4433543FF0201D4350025408C
:101AB00067469560D668009D3543BF0201D4350066
:101AC00025406746D5605668009D3543BF0301D465
:101AD00035002540674655601568009E2E43FF037C
:101AE00001D425402E001660013352E70010024059
:101AF000000001400004004800080048000C0048B5
:101B000000F0FFB70004014000690840431E9841FF
:101B1000C0B27047002A01D0816170478162FCE742
:101B200070B504000120002C16D02368124A072645
:101B30001A60124A1A6062685A60A2689A60FFF7D7
:101B400011FC05002368DA68324206D11969E2689F
:101B500091420DD01A61002070BDFFF703FC401BBD
:101B60002728EFD92368DB683342EBD00320F3E763
:101B7000034A1A60EFE7C046CCCC00005555000080
:101B8000AAAA00000368024A00201A607047C046F3
:101B9000AAAA0000F0B50E0085B015000400FFF7FA
:101BA000E1FBAD192D1AFFF7DDFB8027254B0190D6
:101BB0001B685B011B0D6B4303932268936818003D
:101BC00038403B4232D0731CF8D0FFF7CBFB019B6F
:101BD000C01AA8422CD3E02123685A688A435A606D
:101BE00082226168520091420CD18021A2680902D0
:101BF0008A4203D08021C9008A4203D140211A6859
:101C00008A431A608021A26A89018A4206D1196832
:101C10000D480140196019680A431A602300012227
:101C20005D331A70002303205C34237005B0F0BDCF
:101C3000039B002B00D02B00039A1D00013A039256
:101C4000BBE7C04600000020FFDFFFFFF0B5170034
:101C5000002285B01D0002ABDA7004000E00FFF711
:101C600081FBED192D1AFFF77DFB232223680090DD
:101C700001932A4B1B6853431B0D6B43039302AB29
:101C80002168DA1C8B681800304033423BD0C023F7
:101C9000DB009E4204D1019B1B7BDBB213701378E7
:101CA0007B1CEFD0FFF75EFB009BC01AA8422CD331
:101CB000E02123685A688A435A6082226168520090
:101CC00091420CD18021A26809028A4203D080216E
:101CD000C9008A4203D140211A688A431A608021D0
:101CE000A26A89018A4206D119680D48014019602B
:101CF00019680A431A60230001225D331A70002319
:101D000003205C34237005B0F0BD039B002B00D092
:101D10002B00039A1D00013A0392B0E70000002057
:101D2000FFDFFFFFF8B582231700426804000E00B2
:101D30005B009A420DD1802283681202934203D045
:101D40008022D200934204D14021226813688B4341
:101D500013603A0031002000FFF71CFF051E05D07C
:101D60002023226E03251343236616E08223626834
:101D70005B009A4211D18022A3681202934203D0E1
:101D80008022D200934208D1C0213B0032002000C3
:101D9000C900FFF75BFF0028E2D12800F8BD70B54D
:101DA00013000D0016000A00C02149010400FFF7CE
:101DB0004DFF002805D020230320226E1343236605
:101DC00070BD320029002000FFF7E4FE0028F2D1A8
:101DD000C02133002A002000C900FFF737FF002888
:101DE000EED0E8E7F8B504000120002C67D0636A64
:101DF000002B65D1822261685200914200D0E361DC
:101E000000232500A3625D352B78DAB2002B05D1C3
:101E100023005C3320001A70FFF7C6F8022340222B
:101E20002B702168E6680B689343E0220B60D200B8
:101E30000023964248D9F02218001201964200D0A1
:101E4000A36282228427636852001340A2683F0283
:101E50003A40022713432269A5693A4013430122FD
:101E6000676917403B438027BF002F403B43E7692A
:101E7000373217403B43276A4832174080223B43A2
:101E8000A76A920117403B43102708220B60636A40
:101E90002D0C3B40676B17403B43F0273F013E4012
:101EA0003343042635402B4303434B60CB6908483A
:101EB00003400020CB61012320665D342370F8BD10
:101EC0000023236163619BE780204001B6E7C046A1
:101ED000FFF7FFFFF7B5050001925C352E7804008F
:101EE0000220012E57D02600013828705D36307848
:101EF000C7B23A006768BC46012809D08227022091
:101F00007F00BC4545D1A768002F42D1042A40D1AB
:101F100000293DD0019A002A3AD0002B38D03078E1
:101F2000042801D00520307000202700019AA16309
:101F3000A11D20662264E387A3870837CB87216829
:101F4000FB87464AE0642065486810404860E0200E
:101F5000E268C00082421FD94B68414803404B6091
:101F60003378A06D042B52D03E4E3F4B83623F4BE3
:101F7000C662036300234363FB8F019A9BB20C315B
:101F8000FFF7A6FC031E45D01023226E13432366E1
:101F9000012000232B70FEBD80204A6840011043C1
:101FA00048608020626DC0005269824208D1DB0720
:101FB0001BD44B682E4803404B60E38F5B08E387DC
:101FC0008023A06DDB0040699842C9D14B6824484A
:101FD00003404B60FB8FDB0710D44B682548034060
:101FE0004B60FB8F5B08FB87BAE780234868DB0107
:101FF00003434B60E38F5B080133E0E780234868CD
:102000009B0103434B60FB8F5B080133EBE71A4EE8
:102010001A4BABE70121226850680143606D5160A3
:10202000C362836203634363E38FA16B9BB20C3291
:10203000FFF74EFC0028A7D14022236819681142FF
:1020400002D119680A431A60202259680A435A606B
:10205000022259680A435A609BE7C046FF9FFFFF70
:10206000FFEFFFFFFB2100089B220008072200086A
:10207000FFBFFFFFFFDFFFFFEF2100082B2200085B
:10208000F7B5130002005D3204001078C6B20128D3
:1020900000D099E0A06800280DD1822567686D0006
:1020A000AF4208D1043010700A002000FFF712FF81
:1020B00006003000FEBD25005C352F78012F00D1D1
:1020C00084E001272F70002942D0002B40D0042546
:1020D000270015700022A51D083722662164EB87B2
:1020E000FB87802325680197E2642265A287E28747
:1020F0001B02984207D12B68403293432B602B6818
:10210000334A13402B60334A6B68944613406B602C
:10211000E023E268A06DDB009A421DD96B682E4A6D
:1021200013406B602D4B0C35C3622D4B0A0083624C
:102130002C4B2900036300234363019BDB8F9BB27D
:10214000FFF7C6FB00282DD01023226E1343236611
:1021500000235C342370ACE780236A685B0113437F
:102160006B6080234269DB009A42DBD16B681A4ABC
:1021700013406B6023000833DA8FD20707D4674619
:102180006A683A406A60DA8F5208DA87CAE76A6892
:1021900094468022674692013A436A60DA8F520879
:1021A0000132F2E7402223681968114202D119680E
:1021B0000A431A602022596800260A435A60012205
:1021C00059680A435A60C3E70226C1E7022670E74E
:1021D000FFBFFFFFFFDFFFFFFFEFFFFFEF21000863
:1021E0002B2200080722000870477047704710B57F
:1021F000406AFFF7FBFF10BD704710B5406AFFF75C
:10220000FBFF10BD70470321406A10B50268536898
:102210008B4353601023026E1343036603000122B5
:102220005D331A70FFF7EEFF10BD70B50500446A0C
:10223000FFF798F8020020202B681B68034228D182
:102240002368596881435960A16800291ED105316E
:102250006068FF31884219D1032059688143596071
:1022600020006421FFF75EFD002801D020232366B3
:10227000230000220833DA87553301321A70236EA7
:10228000002B06D02000FFF7BDFF70BD012059686C
:10229000E4E72000FFF7A8FFF7E770B50500446A00
:1022A000FFF760F82B6820251B6802002B4221D124
:1022B000216820004B68AB434B606421FFF76FFD42
:1022C000002802D0236E1D4325660321226853682F
:1022D0008B435360220000230832E387D387230017
:1022E00001225D331A70236E002B03D02000FFF70C
:1022F00089FF70BD2000FFF778FFFAE7036830B56B
:102300000400412059689A6885B01040012806D120
:10231000480604D5E36C2000984705B030BD90070F
:1023200003D5080601D5236DF5E7B0204000024231
:10233000F3D08806F1D550060FD520005D30007827
:10234000032850D00420256E2843206600200090EA
:10235000D868009098680090009890060CD50120ED
:10236000256E284320660020402502909868029040
:102370001868A84318600298D20508D50822206E74
:1023800002432266002203929A680392039A226E05
:10239000002AC2D0E0205A6882435A602200DF3807
:1023A0005D3210700230014225D05A688243A06D20
:1023B0005A60002809D0124B4363FFF7C5FA002882
:1023C00003D04023226E13432366606D0028A4D0FF
:1023D0000B4B4363FFF7B8FA00289ED04023226ED0
:1023E0001343236699E700220192DA6801929B6801
:1023F0000193019B91E72000FFF704FF8DE7C046A2
:1024000005240008406A0023020010B50832D38773
:10241000C387FFF7F7FE10BD01000300012010B5D0
:102420003D310C78E2B284421CD1001808701B6860
:10243000D9681143D9600D498B4209D08021C90563
:102440008B4205D00A498B4202D00A498B420AD1FD
:1024500007219A680A40062A03D0012219680A4314
:102460001A60002010BD1968F9E7C046002C014031
:1024700000040040004001407047704770477047BB
:102480000222036870B5DD681E69040016420DD093
:1024900015420BD0053A1A61043202779B699B07FB
:1024A00000D171E0FFF7E9FF0023237704231E42E8
:1024B00011D01D420FD00522236852421A61073203
:1024C00022779A69C0239B0020001A4262D0FFF74E
:1024D000D4FF0023237708231E420FD01D420DD0C6
:1024E0000922236852421A610D322277DB692000EB
:1024F0009B0755D0FFF7C1FF0023237710231E420F
:1025000011D01D420FD01122236852421A61193294
:102510002277DA69C0239B0020001A4246D0FFF7D9
:10252000ACFF0023237701231E4208D01D4206D0B2
:1025300002222368524220001A6101F0DDFA802352
:102540001E4208D01D4206D081222368524220003C
:102550001A6100F084F940231E4208D01D4206D0C3
:1025600041222368524220001A61FFF788FF20238E
:102570001E4208D01D4206D021222368524220006C
:102580001A6100F06BF970BDFFF776FF2000FFF7CE
:1025900075FF89E7FFF770FF2000FFF76FFF98E7EF
:1025A000FFF76AFF2000FFF769FFA5E7FFF764FF69
:1025B0002000FFF763FFB4E7234A10B50368904299
:1025C00006D08024E405A04202D0204CA0420CD1C9
:1025D0007024A3434C682343904212D08024E40526
:1025E000A0420ED0194CA0420BD0194CA04208D0EA
:1025F000184CA04205D0184CA04202D0174CA04263
:1026000003D1174C1C40CB6823438024A3434C695F
:10261000234303608B68C3620B688362904208D0D7
:102620000C4B984205D00C4B984202D00B4B984271
:1026300001D10B690363012242610369134202D095
:1026400003699343036110BD002C01400004004066
:10265000002000400040014000440140004801408B
:10266000FFFCFFFF70B504000120002C21D02500E5
:102670003D352B78DAB2002B05D123003C33200006
:102680001A70FEF7C5FD02232B702068211DFFF78D
:1026900093FF220001230020463213704534083A8C
:1026A000137053709370D3701371537193712370BF
:1026B0002B7070BD30B58468034D0A431B022C405B
:1026C00013432343836030BDFF00FFFFF8B50500CF
:1026D00002223C352C7803001000012C1BD01E0078
:1026E00001383D36287032701C68414AA368134097
:1026F000A3600B68602B4ED02DD8402B62D013D82E
:10270000202B0BD008D810221900914306D00123AA
:10271000337000232B70F8BD302BF8D17021A268E4
:102720008A431343072228E0502BF0D14A68CB6834
:10273000216A276A1B0187432762F027A069B843F3
:1027400003430A20A361702381430A432262A268E3
:102750009A43193B11E08022520193420FD080220C
:10276000920193420DD0702BD1D1CB684A682000E2
:102770008968FFF79FFF7723A2681343A3600020B7
:10278000C5E7CB684A6820008968FFF793FF80237C
:10279000A268DB01F1E710274B68CA68216A206A4A
:1027A0001203B8432062A069124F1B013840024354
:1027B000A02081430B43A26123627023A2689A4345
:1027C000093BDAE74A68CB68216A276A1B0187431D
:1027D0002762F027A069B84303430A20A36170234E
:1027E00081430A432262A2689A43293BC5E7C04657
:1027F0008800FFFFFF0FFFFF70B5040002223C348A
:10280000257803001000012D20D01D0070263D35D5
:102810002A701B6858689A68B0430E683043586045
:102820000B48834209D08020C005834205D0094867
:10283000834202D00848834204D180204968824301
:102840000A439A60012300202B70207070BDC0469F
:10285000002C0140000400400040014070477047D8
:10286000014B18607047C046000000207F2300889D
:102870009843034BC01843425841C0B27047C0460A
:1028800000FAFFFF0088054B1840054BC018054BA8
:10289000184043425841C0B27047C04680FEFFFF17
:1028A00000FEFFFF80FD0000034B0088C01843427C
:1028B0005841C0B27047C04681F8FFFF0A21F8B501
:1028C00006009078537800021843D37814001A0950
:1028D00051430F2203257F271340C9182378C9B21B
:1028E0002B43237033883B40B027FF00DB19338034
:1028F00023789343402B18D1221D00F0E1F90028E2
:1029000011D004230C212278181A284080008A4311
:10291000024322700F2122781B010A401343012237
:1029200023701000F8BD0823F4E70022202BF8D113
:10293000221D00F0EFF90028F5D004230C212278A5
:102940001B1A2B409B008A43134323700623E1E7A5
:1029500003007F221B88080093438232FF3210B5A8
:10296000934207D10F4B1B69002B00D098470122DF
:10297000100010BDC0229200934202D1094B5B6946
:10298000F2E78022D200934202D1064B9B69EBE72B
:10299000A0210022C9008B42EAD1024BDB6993429D
:1029A000E4D1E4E774020020014B80001950704725
:1029B0007402002070B5150004AA16780C000022DD
:1029C000032810D8174AFDF79FFB02101A2312683C
:1029D000002A07D01800904708232B707933FF3363
:1029E000334323800122100070BD5268002AF9D0C1
:1029F0001800904708232B70A0239B00F0E79268F3
:102A0000002AEFD01800904708232B70E023F4E74A
:102A1000D268002AE6D01800904708232B70902334
:102A2000DB00DDE77402002010B5104B104C0C22C7
:102A300023600023A360E3600133FF33A36102231B
:102A40005043FF33A3830B4BC25C1818436862608A
:102A50002361836820006361FEF78AFC002801D0AF
:102A600001F048F82000FEF77CFD10BD0064004036
:102A7000B80000200C000020F8B5002301275C4CB2
:102A80005C4E5D4A0500210030006361A761E3618F
:102A900022606360A260E36023612762FEF7EEFCC0
:102AA000002801D001F026F8C0220023D200AA1885
:102AB0005201210030006761A761E3612260636019
:102AC000A260E36023612762FEF7D8FC002801D0F2
:102AD00001F010F80223E022012163610023D200FB
:102AE000AA185201A161216230002100E361226035
:102AF0006360A260E3602361FEF7C0FC002801D0A0
:102B000000F0F8FF0323802201216361002392007B
:102B1000AA185201A161216230002100E361226004
:102B20006360A260E3602361FEF7A8FC002801D087
:102B300000F0E0FF0423C022012163610023920022
:102B4000AA185201A161216230002100E3612260D4
:102B50006360A260E3602361FEF790FC002801D06F
:102B600000F0C8FF05238022012163610023D20009
:102B7000AA185201A161216230002100E3612260A4
:102B80006360A260E3602361FEF778FC002801D057
:102B900000F0B0FF0623A021012263610023C900D9
:102BA0006D186D0121003000A261E3612560636052
:102BB000A560E36023612262FEF760FC002801D07B
:102BC00000F098FF072301226361002321003000F9
:102BD000A261E36123606360A360E360236122621A
:102BE000FEF74CFC002801D000F084FFF8BDC04681
:102BF000A0020020B8000020E0EF000010B5002186
:102C00000248FEF7D2FDC0B210BDC046B800002099
:102C100070B50400054DC31C2A0000210448FEF7CE
:102C20003DFD2B6823802B69A37070BDCC02002072
:102C3000B800002070B504000C222100094800F003
:102C400099FF094D2800FEF715FD0028F9D02388CB
:102C5000064928000B60A378054A0B61054BFEF777
:102C6000ACFC70BD94020020B8000020E8020020F7
:102C700097020020C802002010B501241C70E02338
:102C8000DB00C918029B1180187010BD03000020E2
:102C9000834207D14B780130002B03D09B1A5A4254
:102CA0005341D8B2704703780520012B06D0013874
:102CB000022B03D07B30802B00D002307047000005
:102CC000F7B535250024124E01920C222B1B5B1008
:102CD0001B195A43975B874204D25C1CA542F4DA65
:102CE00000200DE0874201D95D1EF7E7B218977802
:102CF0008F42F2D3F8D80023908899B2884200D846
:102D0000FEBD9168019CC95CE1540133F5E7C04602
:102D10001C3C0008F7B535250024124E01920C2208
:102D20002B1B5B101B195A43975B874204D25C1C18
:102D3000A542F4DA00200DE0874201D95D1EF7E7D5
:102D4000B21897788F42F2D3F8D80023908899B2BE
:102D5000884200D8FEBD0199CC5C9168CC54013307
:102D6000F5E7C0461C3C0008034BDA8F0270DB8F8E
:102D70001B0A43707047C0464E04002070477047DE
:102D800070477047704770477047000010B51C4B84
:102D900001001A78824208D07F2807D10020194A02
:102DA000197010707B3900F0FFFD10BD052805D1AA
:102DB0000120144A197010700020F4E7042809D18A
:102DC0000020104A19700100107000F0EDFD06217E
:102DD0000220E8E7002807D10A4A1870107000F0B6
:102DE000E3FD06210120DEE78128DED10024054A2B
:102DF000210018702000147000F0D6FD2100F1E7CA
:102E00004803002001030020014B18787047C0469A
:102E100048030020074B1A78002A08D101321A70A3
:102E2000054A1268516A054AD28D52185A6000202C
:102E30007047C04618030020980100200C040020B1
:102E400010B5FFF7E7FF0022014B1A7010BDC04616
:102E500001030020FF2270B5274B284D041E287067
:102E60001A700CD10521022000F09EFD05210120E1
:102E700000F09AFD0521200000F096FD70BD0621AE
:102E8000022000F091FD0621012000F08DFD0220BE
:102E9000FFF7CAFD2878FFF7EFFD00201849FFF77C
:102EA00083FD01201749FFF77FFD02201649FFF738
:102EB0007BFD03201549FFF777FD04201449FFF738
:102EC00073FD05201349FFF76FFD06201249FFF738
:102ED0006BFD07201149FFF767FD1148FFF79CFACA
:102EE000104B114A1A6004225A60033A9A60002279
:102EF000DA601A615A61C1E74803002049030020E3
:102F0000692D00087D2D0008832D0008852D0008FF
:102F1000872D0008892D00087F2D0008812D0008CD
:102F2000980100200C04002091010100F0B5BD4C77
:102F300085B02178002900D1F7E0BB4B0393DB8EED
:102F4000002B1AD0B94FBA4E3B685A6A33689A427E
:102F500013D3B84AB84D1078B84AB94B00922A003A
:102F6000FFF78AFE2800FFF765FE3B685A6A039B5D
:102F7000D98E0A234B439B183360AB4DAB8C002B8F
:102F80001CD0AC4B1B78052B18D1A84BAD4E1B6841
:102F90005A6AB3689A4211D3A74F2178A74BA84A1F
:102FA000009100203900FFF705FD3800FFF742FED1
:102FB0000A23AA8C5343B2689B18B360EB8C002B96
:102FC0001CD09C4B1B78052B18D1984B9D4E1B6831
:102FD0005A6A73699A4211D3974F2178974B984A4E
:102FE000009101203900FFF7E5FC3800FFF722FED1
:102FF0000A23EA8C534372699B1873612B8D002B53
:103000001CD08C4B1B78052B18D1884B8D4E1B6820
:103010005A6A336A9A4211D3874F2178874B884A7C
:10302000009102203900FFF7C5FC3800FFF702FECF
:103030000A232A8D5343326A9B1833626B8D002B0F
:103040001CD07C4B1B78052B18D1784B7D4E1B6810
:103050005A6AF36A9A4211D3774F2178774B784AAC
:10306000009103203900FFF7A5FC3800FFF7E2FDCF
:103070000A236A8D5343F26A9B18F3620026714F4C
:103080003B78002B13D0694B1B685A6A7B689A42C5
:103090000DD30023207868493B70694A0090674B44
:1030A00030000391FFF786FC0398FFF7C3FD01365C
:1030B000F6B20C37042EE3D15E4E3378FF2B13D1DA
:1030C000FFF79CFD00280FD05B4F3800FFF7A0FDF5
:1030D0003800FFF7E9FB002806D05B4A137801337C
:1030E000DBB2022B12D013703078002814D1217873
:1030F000514A524C524B00941400FFF7BDFD200082
:10310000FFF798FD7F20FFF741FE0EE000238120AE
:103110001370FFF73BFEE7E7812808D10020FFF797
:1031200035FE0022424BEA861A6005B0F0BD7F28CA
:1031300023D1FFF763FD0028F7D03F4D2800FFF7AC
:1031400067FD2800FFF792FB3C4E00280AD03200B2
:1031500028003B49FFF7B2FB0028E6D02800FFF724
:1031600069FDE2E7227831002888FFF78FFD041E11
:1031700070D03000FFF797FDC5E7052843D1FFF772
:103180003DFD0028D1D02C4D2800FFF741FD28003F
:10319000FFF78AFB00280ED02C4A0021136802207A
:1031A0000133136000F000FC294B1B78002BBCD0CE
:1031B000FFF746FEB9E72800FFF758FB1F4E00282F
:1031C0000AD0320028001E49FFF778FB0028EBD018
:1031D0002800FFF72FFDE7E72800FFF753FB002843
:1031E00004D031002800FFF7B3FBDDE7310022787F
:1031F0002888FFF74BFD0028D6D03000FFF753FD9D
:10320000FFF7C4FDD0E7042800D08EE7FFF7F6FCF7
:10321000002800D189E7084D2800FFF7F9FC227843
:10322000064EA0E7490300200C040020980100206E
:1032300008030020480300200C0300200F03002097
:103240000E030020180300200003002004030020C8
:10325000010300202800FFF727FB002800D164E7C6
:10326000044A2100136802200133136000F09CFB24
:103270005BE7C04604030020174B10B51B681A69B2
:10328000D20724D5022252421A610022134B5A60FF
:103290009A601A615A61DA611A629A62DA62104AB5
:1032A0001368002B02D00F495B1813600E4B1A688D
:1032B000002A0DD10D4A12787F2A01D0052A07D1A4
:1032C0000220042100F070FB7F20FFF75FFD10BD9E
:1032D00000221A60FBE7C046980100201803002076
:1032E00008030020A115FFFF04030020480300206D
:1032F000902010B501240C210022C005FEF70AFC25
:10330000094B0A481A68136823431360FFF784F8CF
:103310000421074B07481A6813688B43136006495A
:103320002200FEF7ADFE10BD28020020E0010020C3
:10333000F000002034010020BC040020144B70B5C4
:1033400019880F250A000C242A40930008092840F8
:103350002340921013438200224080100243FF203A
:103360000A3D8143023C5010520022402840104345
:103370005A105B002A4023401343000103431943C2
:10338000044BDA8F8A4202D0D987FFF743FD70BD24
:10339000BC0400204E040020F0B5194B85B01D6818
:1033A000184C6B6A184F0193184B194E0293A3687F
:1033B000019A00200093934212D06068FDF774FBDD
:1033C000019B009A0390981AFDF76EFB011C03986D
:1033D000FCF748FF0F49FDF765F8FCF72BFF80B2BB
:1033E0006B6A6268A360336838809B1808C6002344
:1033F0006360029B0C3402379C42D8D105B0F0BD0B
:10340000280200204C0300208E0400200C04002021
:103410004C04002000803B477F4830B503689B0682
:1034200000D4F6E07D4B1A887D4B11075C78C90FFC
:1034300019708C4202D05C6864185C6059705C7BC7
:103440005107C90F19738C4202D01C6964181C61A2
:1034500059735C7E9107C90F19768C4202D0DC69E2
:103460006418DC61597601215C1D1140E1779C1DD7
:10347000E47F8C4202D09C6A64189C629C1DE177B8
:103480001C0011063034C90F21701C00313424781F
:103490008C4202D05C6B64185C631C003134217078
:1034A0001C0051063C34C90F21701C003D342478A7
:1034B0008C4202D01C6C64181C641C003D342170CA
:1034C0001C0091064834C90F21701C00493424782F
:1034D0008C4202D0DC6C6418DC641C00493421701E
:1034E0001C00D1065434C90F21701C0055342478B7
:1034F0008C4202D09C6D64189C651C005534217070
:103500001C00D1056034C90F21701C00613424787F
:103510008C4202D05C6E64185C661C0061342170C1
:103520001C0091056C34C90F21701C006D34247887
:103530008C4202D01C6F64181C671C006D34217013
:103540001C0051057834C90F21701C00793424788F
:103550008C4202D0DC6F6418DC671C007934217067
:103560001C0011058434C90F21701C008534247897
:103570008C4204D01D0088352C6864182C601C0017
:10358000853421701C00D1049034C90F21701C00B7
:10359000913424788C4204D01D0094352C68641832
:1035A0002C601C00913421701C0091049C34C90FC4
:1035B00021701C009D3424788C4204D01D00A0355D
:1035C0002C6864182C601C009D3421701C00510470
:1035D000A834C90F21701C00A93424788C4204D06F
:1035E0001D00AC352C6864182C601C00A9342170B7
:1035F0001C00D213B434D1B221701C00B53424782D
:103600008C4204D01D00B8352C68A2182A60B5334E
:1036100019701023436030BD00000240BC0400203C
:103620004C03002070B590258021ED05280089000D
:10363000FEF76AFA80210400C9002800FEF764FA48
:1036400080214000A400044309022800FEF75CFA30
:1036500064B2024B20430A30987170BDB40400205C
:103660001822504310B5044B1A189188C0580022F4
:10367000FEF750FA10BDC0465400002018225043F7
:1036800010B5044B1A189188C0580122FEF742FA6F
:1036900010BDC04654000020F8B518254543174E0C
:1036A0007419E388002B0ED10127E780FDF75AFE3D
:1036B0003A00A188E060A859FEF72CFAFDF752FE07
:1036C000C8302061F8BD2769FDF74CFE8742F9D864
:020000040900F2
:1036D000E388012B0CD1FA220133E38023699200A5
:1036E0009B18A1880022A8592361FEF713FAE9E785
:1036F000022BE7D10023E380E4E7C046540000201A
:10370000F8B5182545431F4E7419E388002B0ED1D8
:103710000127E780FDF726FE3A00A188E060A8595E
:10372000FEF7F8F9FDF71EFEC8302061F8BD2769E5
:10373000FDF718FE8742F9D8E388012B07D1013342
:10374000E3802369C8330022A188236108E0022BAB
:103750000AD101220133E3802369A188C8332361A0
:10376000A859FEF7D7F9E1E7032B06D1FA22013376
:10377000E380236992009B18E5E7042BD6D1002350
:10378000E380D3E754000020F7B518242300434317
:103790002B4D0093EE18F3880700002B0FD1173C38
:1037A000F480FDF7DFFD009B2200B188F0605859DE
:1037B000FEF7B0F9FDF7D6FDC8303061F7BD3369CB
:1037C0000193FDF7CFFD019B8342F7D8F0880128D4
:1037D0000BD102230022F3803369B188C8333361EF
:1037E000009B5859FEF796F9E8E702380428E5D817
:1037F0007C43FCF789FC030D1619210003222B19C9
:10380000DA801A699988C8321A6101222859E9E7D1
:1038100004222B19DA801A69C8321A6199880022A9
:10382000F4E705222B19EBE70622FA212B19DA809F
:103830001A6989005218F0E700232D19EB80BDE7C3
:1038400054000020F8B518254543184E7419E38834
:10385000002B0ED10127E780FDF784FD3A00A188F7
:10386000E060A859FEF756F9FDF77CFDC8302061ED
:10387000F8BD2769FDF776FD8742F9D82769FDF77E
:1038800071FD8742F4D8E388012B0AD10133E3802C
:1038900023690022C833A188A8592361FEF73AF9A9
:1038A000E6E7022BE4D10023E380E1E754000020A7
:1038B000F8B518254543184E7419E388002B0ED12E
:1038C0000127E780FDF74EFD3A00A188E060A85986
:1038D000FEF720F9FDF746FD32302061F8BD27697B
:1038E000FDF740FD8742F9D82769FDF73BFD874288
:1038F000F4D8E388012B0AD10133E3802369002245
:103900003233A188A8592361FEF704F9E6E7022BB8
:10391000E4D10023E380E1E754000020F0B58024E7
:10392000902787B0154D6400FF051422002101A8DF
:1039300000F0F4F8210038000022FEF7EBF8280030
:1039400000221021FEF7E6F8002228000821FEF7E9
:10395000E1F8012601940024380001A9029603949D
:103960000494FEF713F81823280001A90193029686
:1039700003940494FEF70AF807B0F0BD0004004871
:1039800010B5084C6369002B01D000209847E36A0A
:10399000002B01D001209847636C002B01D002203E
:1039A000984710BD54000020182330B504001800BB
:1039B000002560430F4A10180172C580A94202D148
:1039C0000D4B436130BD481E0528FBD86343D31817
:1039D000FCF79AFB0306080A0C0E084A5A61F1E745
:1039E000074AFBE7074AF9E7074AF7E7074AF5E717
:1039F000074AF3E7540000206136000899360008B2
:103A0000013700088937000845380008B138000838
:103A10007D3600080122274910B50B6893431343F4
:103A20000B600B681342FCD08022234B52021968B2
:103A30000A431A608022920219681142FCD00122C6
:103A4000596A0A435A620222596A1142FCD05968E3
:103A50001A4A1140882252030A430F215A60DA6A37
:103A60008A43DA628022196852040A431A6080226B
:103A7000920419681142FCD0F0215A688A435A60B6
:103A80005A680F490A405A60032259689143013A23
:103A90000A430C215A605A680A40082AFBD1094897
:103AA000FEF7DEFE0320FDF71DFC002801D072B6F4
:103AB000FEE710BD0020024000100240FF7FC2FF61
:103AC000FFF8FFFF006CDC0210B5FDF72FFCFFF7DD
:103AD000A1FFFDF7B3F9FDF705FAFDF799F9FDF739
:103AE00043F9FDF739FAFDF7E9FAFDF725FBFDF794
:103AF00063FB10BD72B6FEE7034B026810B59A4235
:103B000001D1FFF749FC10BD0004004010B5024888
:103B1000FEF738F810BDC046E00000200300821810
:103B2000934200D1704719700133F9E770B5002650
:103B30000C4C0D4D641BA410A64209D1002600F0C8
:103B400023F80A4C0A4D641BA410A64205D170BD8F
:103B5000B300EB5898470136EEE7B300EB589847AF
:103B60000136F2E7A43E0008A43E0008A83E000883
:103B7000A43E0008002310B59A4200D110BDCC5CD1
:103B8000C4540133F8E70000F8B5C046F8BC08BCDF
:103B90009E467047F8B5C046F8BC08BC9E467047C4
:103BA00032040008620300087A0300089803000842
:103BB0007A030008DC0300087A0300089803000871
:103BC0006203000862030008DC0300089803000891
:103BD000820300088203000882030008E60300084D
:103BE00062030008620300087A03000870040008FA
:103BF0007A030008DC0300087A0300087004000858
:103C00006203000862030008DC0300087004000877
:103C100082030008820300088203000800100000ED
:103C2000040000000C040020171000000200000037
:103C300042040020181000000400000010040020BE
:103C400018100100040000001404002018100200E5
:103C500004000000180400201810030004000000F5
:103C60001C040020181004000400000020040020A0
:103C700000120000010000004504002000120100B5
:103C800004000000240400200012020004000000D0
:103C90002804002000180000010000004404002057
:103CA00000180100040000002C040020001802008D
:103CB000010000004604002000180300020000007C
:103CC0003A04002000180500020000003004002023
:103CD000001A00000100000047040020001A010043
:103CE0000200000038040020006200000400000010
:103CF000B40400200062010002000000B8040020AB
:103D000000620200020000008C040020016200003A
:103D100001000000AF040020016201000200000069
:103D20008E040020016202000200000090040020C6
:103D300001620300020000009204002001620400FE
:103D4000020000009404002001620500020000004F
:103D50009604002001620600020000009804002082
:103D600001620700020000009A04002001620800BE
:103D7000020000009C040020016209000200000013
:103D80009E04002001620A0002000000A00400203E
:103D900001620B0002000000A204002001620C007E
:103DA00002000000A404002001620D0002000000D7
:103DB000A604002001620F0002000000A8040020F9
:103DC00001620E0002000000AA040020016210003F
:103DD00002000000AC0400200262000001000000AC
:103DE000AE04002002620100040000004C04002028
:103DF000026202000400000050040020026203007E
:103E000004000000540400200262040004000000CA
:103E10005804002002620500040000005C04002039
:103E20000262060004000000600400200262070035
:103E30000400000064040020026208000400000086
:103E40006804002002620900040000006C040020E5
:103E500002620A00040000007004002002620B00ED
:103E6000040000007404002002620C000400000042
:103E70007804002002620D00040000007C04002091
:103E800002620F00040000008004002002620E00A5
:103E900004000000840400200262100004000000FE
:043EA0008804002072
:043EA400E900000829
:043EA800C10000084D
:103EAC0000127A0001000000040000000300000072
:103EBC0000000C00000010000400000000000B00CB
:103ECC00000010000600000000000C0000001000B4
:103EDC000C00000000000C00000010001800000096
:103EEC0000000C00000010001E00000000000C0080
:103EFC00000010000004004810000000000000004A
:103F0C000000000000000000000000000004004859
:103F1C00080000000000000000000000000000008D
:103F2C00000000000000004800010000000000003C
:0C3F3C0000000000000000000000000079
:04000005080012914C
:00000001FF
