:020000040800F2
:1040000000400020954500083D4500084545000852
:1040100000000000000000000000000000000000A0
:104020000000000000000000000000004D450008F6
:10403000000000000000000057450008614500082E
:10404000E5450008E5450008E5450008E5450008A8
:10405000E5450008E5450008E5450008E545000898
:10406000E5450008E5450008E5450008E545000888
:10407000E5450008E5450008E5450008E545000878
:10408000E545000871450008E5450008E5450008DC
:10409000E5450008E5450008E5450008E545000858
:1040A000E5450008E5450008E5450008E545000848
:1040B000E5450008E5450008E5450008E545000838
:1040C00010B5064C2378002B07D1054B002B02D0EE
:1040D000044800E000BF0123237010BDD000002081
:1040E00000000000345B0008044B10B5002B03D027
:1040F0000349044800E000BF10BDC04600000000B6
:10410000D4000020345B0008002243088B4274D3A3
:1041100003098B425FD3030A8B4244D3030B8B42C8
:1041200028D3030C8B420DD3FF22090212BA030CD1
:104130008B4202D31212090265D0030B8B4219D3B2
:1041400000E0090AC30B8B4201D3CB03C01A5241D2
:10415000830B8B4201D38B03C01A5241430B8B421A
:1041600001D34B03C01A5241030B8B4201D30B0303
:10417000C01A5241C30A8B4201D3CB02C01A52412A
:10418000830A8B4201D38B02C01A5241430A8B42ED
:1041900001D34B02C01A5241030A8B4201D30B02D6
:1041A000C01A5241CDD2C3098B4201D3CB01C01AF0
:1041B000524183098B4201D38B01C01A52414309FA
:1041C0008B4201D34B01C01A524103098B4201D3E8
:1041D0000B01C01A5241C3088B4201D3CB00C01A55
:1041E000524183088B4201D38B00C01A52414308CD
:1041F0008B4201D34B00C01A5241411A00D20146F2
:10420000524110467047FFE701B5002000F006F864
:1042100002BDC0460029F7D076E770477047C04618
:1042200080B582B000AF00237B600CE0224B1A689F
:104230007B689B00D3181968204B7A689200D15094
:104240007B6801337B607B682F2BEFD91C4B9A690D
:104250001B4B01210A439A61194B9B6901221340B0
:104260003B603B68174B1A68164B03218A431A6060
:10427000144B1A68134B03210A431A6000F0B4F977
:1042800062B6C04600F022F800F098F800F05AF844
:10429000FA239B00180000F00BFA802359009023AA
:1042A000DB050122180000F07DFC074B180001F02F
:1042B000B9F9C046FDE7C046C0000020000000205C
:1042C0000010024000000140EC00002090B593B0C7
:1042D00000AF14243B19180034231A00002101F008
:1042E000FDFB3B1D180010231A00002101F0F6FB16
:1042F0003B1920221A603B1901221A623B19002245
:104300005A623B19180000F06BFC031E01D000F04C
:10431000C5F83B1D07221A603B1D03225A603B1D56
:1043200000229A603B1D0022DA603B1D012118002B
:1043300000F0DCFF031E01D000F0B0F8C046BD461F
:1043400013B090BD80B582B000AF3B0018000823C9
:104350001A00002101F0C2FB154B164A1A60144BDB
:10436000FA2292005A60124B00229A60104B124AB5
:10437000DA600F4B00229A610D4B180001F002F930
:10438000031E01D000F08AF83B0000221A603B00B7
:1043900000225A603A00064B1100180001F030FB71
:1043A000031E01D000F07AF8C046BD4602B080BDC1
:1043B000EC00002000100040B80B000090B589B060
:1043C00000AF0C243B19180014231A00002101F03F
:1043D00085FB1E4B5A691D4B8021C9030A435A6154
:1043E0001A4B5A698023DB031340BB60BB68174B31
:1043F0005A69164B802189020A435A61134B5A6944
:1044000080239B0213407B607B68802359009023AC
:10441000DB050022180000F0C5FB3B19802252008A
:104420001A603B1901225A603B1900229A603B191D
:104430000022DA603A199023DB051100180000F021
:1044400039FAC046BD4609B090BDC04600100240D2
:1044500080B582B000AF78600F4B1B78DBB2002BC9
:104460000BD00D4B00221A70802359009023DB05DE
:104470000122180000F096FB0AE0074B01221A7097
:10448000802359009023DB050022180000F08AFBEE
:10449000C046BD4602B080BD3401002080B500AFEB
:1044A00072B6C046C046FDE780B582B000AF0F4B84
:1044B0009A690E4B01210A439A610C4B9B690122B8
:1044C00013407B607B68094BDA69084B8021490502
:1044D0000A43DA61054BDA6980235B0513403B60D0
:1044E0003B68C046BD4602B080BDC04600100240D9
:1044F00080B584B000AF78607B681B680D4A93423A
:1045000013D10D4BDA690C4B10210A43DA610A4BC7
:10451000DB6910221340FB60FB68002200211120A0
:1045200000F096F9112000F0A8F9C046BD4604B08D
:1045300080BDC046001000400010024080B500AFB2
:10454000C046FDE780B500AFC046FDE780B500AFCF
:10455000C046BD4680BD80B500AFC046BD4680BDEB
:1045600080B500AF00F088F8C046BD4680BD0000B1
:1045700080B500AF034B180001F0A6F8C046BD4659
:1045800080BDC046EC00002080B500AFC046BD46EF
:1045900080BD00000D488546FFF7F6FF0C480D4929
:1045A0000D4A002302E0D458C4500433C4188C428E
:1045B000F9D30A4A0A4C002301E013600432A242F4
:1045C000FBD301F093FAFFF72BFEFEE7004000203B
:1045D000C0000020D0000020845B0008D000002034
:1045E0003C010020FEE7000080B500AF074B1A68D1
:1045F000064B10210A431A60032000F009F8FFF768
:1046000053FF00231800BD4680BDC0460020024075
:1046100090B583B000AF7860144B1C68144B1B78C6
:104620001900FA239800FFF76FFD0300190020001E
:10463000FFF76AFD0300180000F02FF9031E01D0F8
:1046400001230FE07B68032B0BD8796801235B42C1
:104650000022180000F0FCF8064B7A681A6000236C
:1046600000E001231800BD4603B090BDC400002047
:10467000CC000020C800002080B500AF054B1B789F
:104680001A00054B1B68D218034B1A60C046BD4682
:1046900080BDC046CC0000203801002080B500AFAE
:1046A000024B1B681800BD4680BDC0463801002083
:1046B00080B584B000AF7860FFF7F0FF0300BB6007
:1046C0007B68FB60FB68013305D00A4B1B781A003E
:1046D000FB689B18FB60C046FFF7E0FF0200BB6869
:1046E000D31AFA689A42F7D8C046C046BD4604B00D
:1046F00080BDC046CC00002080B582B000AF020073
:10470000FB1D1A70FB1D1B787F2B09D8FB1D1B7826
:104710001A001F231A40044B012191400A001A601D
:10472000C046BD4602B080BD00E100E090B583B058
:1047300000AF02003960FB1D1A70FB1D1B787F2B38
:1047400028D82F4AFB1D1B785BB29B08C0339B0007
:104750009B58FA1D1278110003220A40D200FF2153
:1047600091400A00D2431A4011003B689B01FF228E
:104770001A40FB1D1B78180003230340DB009A40FE
:104780001F48FB1D1B785BB29B080A43C0339B008C
:104790001A5031E01B4AFB1D1B7819000F230B40F8
:1047A000083B9B0806339B00D31804331B68FA1D93
:1047B0001278110003220A40D200FF2191400A0022
:1047C000D2431A4011003B689B01FF221A40FB1D97
:1047D0001B78180003230340DB009A400948FB1DA7
:1047E0001B781C000F232340083B9B080A43063319
:1047F0009B00C31804331A60C046BD4603B090BD89
:1048000000E100E000ED00E080B582B000AF78602C
:104810007B685A1E80235B049A4201D3012310E077
:104820000A4B7A68013A5A6001235B42032118005F
:10483000FFF77CFF054B00229A60044B07221A60A9
:1048400000231800BD4602B080BDC04610E000E065
:1048500080B584B000AFB9607A600F217B18021C6C
:104860001A70BA687B181B785BB211001800FFF74A
:104870005DFFC046BD4604B080BD80B582B000AFCC
:104880000200FB1D1A70FB1D1B785BB21800FFF7BE
:1048900033FFC046BD4602B080BD80B582B000AFD8
:1048A00078607B681800FFF7AFFF03001800BD4673
:1048B00002B080BD80B586B000AF7860396000235B
:1048C0007B6155E13B681B6801217A6991400A00D0
:1048D0001340FB60FB68002B00D146E13B685B683E
:1048E00003221340012B05D03B685B680322134071
:1048F000022B30D17B689B683B617B695B000322A4
:104900009A401300DA433B6913403B613B68DA6825
:104910007B695B009A4013003A6913433B617B68F3
:104920003A699A607B685B683B6101227B699A40C7
:104930001300DA433B6913403B613B685B681B092A
:1049400001221A407B699A4013003A6913433B6184
:104950007B683A695A603B685B6803221340032B0B
:1049600017D07B68DB683B617B695B0003229A4060
:104970001300DA433B6913403B613B689A687B69EB
:104980005B009A4013003A6913433B617B683A69C4
:10499000DA603B685B6803221340022B23D17B69FA
:1049A000DA087B6808329200D3583B617B690722A2
:1049B00013409B000F229A401300DA433B691340D7
:1049C0003B613B681A697B6907210B409B009A4059
:1049D00013003A6913433B617B69DA087B6808324C
:1049E00092003969D1507B681B683B617B695B0031
:1049F00003229A401300DA433B6913403B613B6852
:104A00005B6803221A407B695B009A4013003A6995
:104A100013433B617B683A691A603B685A68C0235C
:104A20009B02134000D1A0E0574B9A69564B0121DD
:104A30000A439A61544B9B6901221340BB60BB68D7
:104A4000524A7B699B0802339B009B583B617B6900
:104A5000032213409B000F229A401300DA433B6964
:104A600013403B617A689023DB059A4219D07B683A
:104A7000474A934213D07B68464A93420DD07B68E5
:104A8000454A934207D07B68444A934201D10423AC
:104A900008E0052306E0032304E0022302E00123EB
:104AA00000E000237A6903210A40920093403A69AA
:104AB00013433B6135497B699B0802339B003A698C
:104AC0005A50374B9B683B61FB68DA433B691340A4
:104AD0003B613B685A6880235B03134003D03A690B
:104AE000FB6813433B612E4B3A699A602C4BDB68A1
:104AF0003B61FB68DA433B6913403B613B685A68A2
:104B000080239B03134003D03A69FB6813433B6146
:104B1000234B3A69DA60224B5B683B61FB68DA43FE
:104B20003B6913403B613B685A6880239B021340FA
:104B300003D03A69FB6813433B61194B3A695A60E9
:104B4000174B1B683B61FB68DA433B6913403B61D1
:104B50003B685A6880235B02134003D03A69FB68C4
:104B600013433B610E4B3A691A607B6901337B61E9
:104B70003B681A687B69DA40131E00D0A2E6C04683
:104B8000C046BD4606B080BD001002400000014096
:104B90000004004800080048000C004800100048CD
:104BA0000004014080B582B000AF786008001100B9
:104BB000BB1C021C1A807B1C0A1C1A707B1C1B78F5
:104BC000002B04D0BB1C1A887B689A6103E0BB1CD5
:104BD0001A887B689A62C046BD4602B080BD00005C
:104BE00080B588B000AF78607B68002B02D10123CC
:104BF00000F076FB7B681B680122134000D18EE039
:104C0000C54B5B680C221340042B0ED0C24B5B6873
:104C10000C221340082B17D1BF4B5A68C0235B02EC
:104C20001A4080235B029A420ED1BB4B1A68802344
:104C30009B02134000D171E07B685B68002B00D0C1
:104C40006CE0012300F04CFB7B685B68012B07D113
:104C5000B14B1A68B04B802149020A431A602FE019
:104C60007B685B68002B0CD1AB4B1A68AA4BAB4935
:104C70000A401A60A84B1A68A74BA9490A401A6053
:104C80001EE07B685B68052B0ED1A34B1A68A24B14
:104C90008021C9020A431A609F4B1A689E4B8021EB
:104CA00049020A431A600BE09B4B1A689A4B9B49D6
:104CB0000A401A60984B1A68974B99490A401A6043
:104CC0007B685B68002B14D0FFF7E8FC0300BB6136
:104CD00008E0FFF7E3FC0200BB69D31A642B01D99B
:104CE0000323FDE28C4B1A6880239B021340F0D013
:104CF00015E0FFF7D3FC0300BB6108E0FFF7CEFC33
:104D00000200BB69D31A642B01D90323E8E2824B6A
:104D10001A6880239B021340F0D100E0C0467B68F4
:104D20001B680222134000D16CE07B4B5B680C22B5
:104D300013400ED0784B5B680C221340082B1FD118
:104D4000754B5A68C0235B021A4080231B029A42AB
:104D500016D1714B1B680222134005D07B68DB68BB
:104D6000012B01D00123BBE26B4B1B68F82293435C
:104D700019007B681B69DA00674B0A431A6041E03F
:104D80007B68DB68002B24D0634B1A68624B0121DF
:104D90000A431A60FFF782FC0300BB6108E0FFF7DB
:104DA0007DFC0200BB69D31A022B01D9032397E2D1
:104DB000594B1B6802221340F1D0574B1B68F82255
:104DC000934319007B681B69DA00534B0A431A604E
:104DD00018E0514B1A68504B01218A431A60FFF7C3
:104DE0005DFC0300BB6108E0FFF758FC0200BB69F3
:104DF000D31A022B01D9032372E2474B1B6802220C
:104E00001340F1D17B681B680822134036D07B68C1
:104E1000DB69002B19D0404B5A6A3F4B01210A43F2
:104E20005A62FFF73BFC0300BB6108E0FFF736FC6A
:104E30000200BB69D31A022B01D9032350E2364B7F
:104E40005B6A02221340F1D018E0334B5A6A324BAE
:104E500001218A435A62FFF721FC0300BB6108E08D
:104E6000FFF71CFC0200BB69D31A022B01D90323F4
:104E700036E2294B5B6A02221340F1D17B681B6842
:104E80000422134000D1B5E01F203B1800221A7005
:104E9000214BDA6980235B05134010D11E4BDA6980
:104EA0001D4B802149050A43DA611B4BDA698023D7
:104EB0005B051340FB60FB683B1801221A70194B1D
:104EC0001A6880235B0013401AD1164B1A68154BE1
:104ED000802149000A431A60FFF7E0FB0300BB6131
:104EE00008E0FFF7DBFB0200BB69D31A642B01D992
:104EF0000323F5E10B4B1A6880235B001340F0D0CD
:104F00007B689B68012B0FD1034B1A6A024B01216E
:104F10000A431A6236E0C04600100240FFFFFEFF5F
:104F2000FFFFFBFF007000407B689B68002B0CD1EB
:104F3000CA4B1A6AC94B01218A431A62C74B1A6AC3
:104F4000C64B04218A431A621CE07B689B68052BD0
:104F50000CD1C24B1A6AC14B04210A431A62BF4BDF
:104F60001A6ABE4B01210A431A620BE0BB4B1A6A54
:104F7000BA4B01218A431A62B84B1A6AB74B042113
:104F80008A431A627B689B68002B14D0FFF786FB6C
:104F90000300BB6109E0FFF781FB0200BB69D31A84
:104FA000AF4A934201D903239AE1AC4B1B6A022218
:104FB0001340F0D013E0FFF771FB0300BB6109E081
:104FC000FFF76CFB0200BB69D31AA54A934201D9D3
:104FD000032385E1A14B1B6A02221340F0D11F235A
:104FE000FB181B78012B05D19C4BDA699B4B9D4923
:104FF0000A40DA617B681B681022134063D07B682B
:105000005B69012B2AD1954B5A6B944B04210A43BF
:105010005A63924B5A6B914B01210A435A63FFF733
:105020003DFB0300BB6108E0FFF738FB0200BB69F2
:10503000D31A022B01D9032352E1884B5B6B022266
:105040001340F1D0854B5B6BF822934319007B68CA
:105050009B69DA00814B0A435A6334E07B685B69E1
:10506000053311D17D4B5A6B7C4B04218A435A6323
:105070007A4B5B6BF822934319007B689B69DA00DB
:10508000764B0A435A631EE0744B5A6B734B0421F0
:105090000A435A63714B5A6B704B01218A435A631E
:1050A000FFF7FCFA0300BB6108E0FFF7F7FA020024
:1050B000BB69D31A022B01D9032311E1674B5B6B48
:1050C00002221340F1D17B681B68202213405CD080
:1050D000624B5B680C2213400C2B0ED05F4B5B685D
:1050E0000C221340082B14D15C4B5A68C0235B027E
:1050F0001A40C0235B029A420BD1584B5A6B802353
:105100009B02134040D07B681B6A012B3CD00123DB
:10511000E6E07B681B6A002B1BD0504B5A6B4F4B51
:10512000802149020A435A63FFF7B8FA0300BB61C2
:1051300008E0FFF7B3FA0200BB69D31A022B01D9CA
:105140000323CDE0454B5A6B80239B021340F0D0E4
:105150001BE0424B5A6B414B43490A405A63FFF7ED
:105160009DFA0300BB6108E0FFF798FA0200BB69F3
:10517000D31A022B01D90323B2E0384B5A6B802398
:105180009B021340F0D100E0C0467B685B6A002BB5
:1051900000D1A4E0314B5B680C221340082B00D1F6
:1051A00078E07B685B6A022B4CD12C4B1A682B4B46
:1051B0002E490A401A60FFF771FA0300BB6108E04C
:1051C000FFF76CFA0200BB69D31A022B01D9032343
:1051D00086E0224B1A6880239B041340F0D11F4BBA
:1051E000DB6A0F22934319007B681A6B1B4B0A433F
:1051F000DA621A4B5B681E4A134019007B68DA6A50
:105200007B689B6A1A43154B0A435A60134B1A6812
:10521000124B802149040A431A60FFF73FFA03004A
:10522000BB6108E0FFF73AFA0200BB69D31A022B10
:1052300001D9032354E0094B1A6880239B041340CF
:10524000F0D04CE0054B1A68044B08490A401A603C
:10525000FFF724FA0300BB6115E0C04600100240CE
:1052600088130000FFFFFFEFFFFFFEFFFFFFFFFEC1
:10527000FF7FC2FFFFF712FA0200BB69D31A022BAD
:1052800001D903232CE0184B1A6880239B04134098
:10529000F0D124E07B685B6A012B01D101231FE080
:1052A000114B5B687B61104BDB6A3B617A69C02301
:1052B0005B021A407B689B6A9A420ED13B690F22BF
:1052C0001A407B681B6B9A4207D17A69F0239B03D3
:1052D0001A407B68DB6A9A4201D0012300E0002378
:1052E0001800BD4608B080BD0010024080B584B0F3
:1052F00000AF786039607B68002B01D10123BFE0EB
:10530000614B1B68012213403A689A4211D95E4BE7
:105310001B680122934319005B4B3A680A431A60E9
:10532000594B1B68012213403A689A4201D001236D
:10533000A6E07B681B680222134015D07B681B68BF
:105340000422134006D0514B5A68504BE021C9004B
:105350000A435A604D4B5B68F022934319007B6807
:105360009A684A4B0A435A607B681B6801221340C3
:105370004CD07B685B68012B07D1444B1A688023B3
:105380009B02134020D101237AE07B685B68022BEB
:1053900007D13E4B1A6880239B04134014D101238C
:1053A0006EE07B685B68032B07D1384B5A6B802318
:1053B0009B02134008D1012362E0344B1B68022298
:1053C000134001D101235BE0304B5B680322934320
:1053D00019007B685A682D4B0A435A60FFF75EF943
:1053E0000300FB6009E0FFF759F90200FB68D31ADC
:1053F000274A934201D9032342E0244B5B680C22E5
:105400001A407B685B689B009A42ECD11E4B1B687C
:10541000012213403A689A4211D21B4B1B680122A9
:1054200093431900184B3A680A431A60164B1B68DD
:10543000012213403A689A4201D0012320E07B68A0
:105440001B680422134009D0104B5B68114A1340BB
:1054500019007B68DA680D4B0A435A6000F020F8A7
:1054600001000A4B5B681B090F2213400A4AD35CF8
:105470000A00DA40094B1A600320FFF7C9F800233D
:105480001800BD4604B080BD00200240001002405C
:1054900088130000FFF8FFFF4C5B0008C4000020E9
:1054A00080B586B000AF0023FB600023BB60002303
:1054B0007B6100237B6000233B612D4B5B68FB60BD
:1054C000FB680C2213400C2B46D048D8042B02D08A
:1054D000082B03D043E0274B3B6143E0FB689B0C68
:1054E0000F221340244AD35C7B60214BDB6A0F22DE
:1054F0001340224AD35CBB60FA68C0235B021A40A7
:1055000080235B029A4209D1B9681A48FEF7FCFD74
:1055100003001A007B6853437B611AE0FA68C023DA
:105520005B021A40C0235B029A4209D1B968144851
:10553000FEF7EAFD03001A007B6853437B6108E035
:10554000B9680C48FEF7E0FD03001A007B6853437E
:105550007B617B693B6105E0094B3B6102E0054BE8
:105560003B61C0463B691800BD4606B080BDC046E1
:105570000010024000127A005C5B00086C5B0008BF
:10558000006CDC0280B582B000AF78607B68002BD5
:1055900001D1012342E07B683D229B5CDBB2002B02
:1055A00007D17B683C22002199547B681800FEF7E4
:1055B0009FFF7B683D22022199547B681A687B68B3
:1055C00004331900100000F08DF97B684622012198
:1055D00099547B683E22012199547B683F22012126
:1055E00099547B684022012199547B684122012112
:1055F00099547B684222012199547B6843220121FE
:1056000099547B684422012199547B6845220121E9
:1056100099547B683D220121995400231800BD460E
:1056200002B080BD80B584B000AF78607B683D2259
:105630009B5CDBB2012B01D001233BE07B683D2268
:10564000022199547B681B68DA687B681B6801211A
:105650000A43DA607B681B68184A93420FD07B6864
:105660001A688023DB059A4209D07B681B68144ABC
:10567000934204D07B681B68124A934211D17B6825
:105680001B689B6807221340FB60FB68062B10D049
:105690007B681B681A687B681B6801210A431A60D3
:1056A00007E07B681B681A687B681B6801210A4356
:1056B0001A6000231800BD4604B080BD002C0140D4
:1056C000000400400040014080B584B000AF786025
:1056D0007B681B68DB68FB607B681B681B69BB60C1
:1056E000BB680222134021D0FB68022213401DD068
:1056F0007B681B68032252421A617B6801221A7779
:105700007B681B689B690322134004D07B681800E8
:1057100000F0D0F807E07B68180000F0C3F87B6861
:10572000180000F0CFF87B6800221A77BB680422CB
:10573000134022D0FB68042213401ED07B681B68F4
:10574000052252421A617B6802221A777B681B6825
:105750009A69C0239B00134004D07B68180000F0B6
:10576000A9F807E07B68180000F09CF87B68180037
:1057700000F0A8F87B6800221A77BB680822134063
:1057800021D0FB68082213401DD07B681B680922CA
:1057900052421A617B6804221A777B681B68DB69B6
:1057A0000322134004D07B68180000F083F807E060
:1057B0007B68180000F076F87B68180000F082F82B
:1057C0007B6800221A77BB681022134022D0FB6846
:1057D000102213401ED07B681B68112252421A61AE
:1057E0007B6808221A777B681B68DA69C0239B00F4
:1057F000134004D07B68180000F05CF807E07B6879
:10580000180000F04FF87B68180000F05BF87B6828
:1058100000221A77BB68012213400CD0FB680122DA
:10582000134008D07B681B68022252421A617B68D1
:105830001800FEF70DFEBB68802213400CD0FB68F9
:105840008022134008D07B681B68812252421A6173
:105850007B68180000F03AF9BB68402213400CD076
:10586000FB684022134008D07B681B6841225242EB
:105870001A617B68180000F02DF8BB6820221340E5
:105880000CD0FB682022134008D07B681B682122C3
:1058900052421A617B68180000F010F9C046BD46FC
:1058A00004B080BD80B582B000AF7860C046BD4610
:1058B00002B080BD80B582B000AF7860C046BD4602
:1058C00002B080BD80B582B000AF7860C046BD46F2
:1058D00002B080BD80B582B000AF7860C046BD46E2
:1058E00002B080BD80B584B000AF786039607B685D
:1058F0001B68FB607B683B4A934208D07A68802330
:10590000DB059A4203D07B68374A934208D1FB6893
:1059100070229343FB603B685B68FA681343FB604B
:105920007B68304A934218D07A688023DB059A421C
:1059300013D07B682C4A93420FD07B682B4A93424A
:105940000BD07B682A4A934207D07B68294A93424E
:1059500003D07B68284A934208D1FB68274A13404A
:10596000FB603B68DB68FA681343FB60FB688022DE
:1059700093431A003B685B691343FB607B68FA68DA
:105980001A603B689A687B68DA623B681A687B68D1
:105990009A627B68134A93420BD07B68144A934205
:1059A00007D07B68134A934203D07B68124A934224
:1059B00003D13B681A697B681A637B6801225A61CC
:1059C0007B681B6901221340012B06D17B681B6990
:1059D000012293431A007B681A61C046BD4604B099
:1059E00080BDC046002C0140000400400020004063
:1059F000004001400044014000480140FFFCFFFF1F
:105A000080B584B000AF786039607B683C229B5CD5
:105A1000012B01D1022347E07B683C2201219954EC
:105A20007B683D22022199547B681B685B68FB60A0
:105A30007B681B689B68BB60FB6870229343FB60BC
:105A40003B681B68FA681343FB607B681B68FA6855
:105A50005A607B681B68164A93420FD07B681A68AD
:105A60008023DB059A4209D07B681B68114A934268
:105A700004D07B681B68104A93420CD1BB6880221B
:105A80009343BB603B685B68BA681343BB607B6849
:105A90001B68BA689A607B683D22012199547B6833
:105AA0003C220021995400231800BD4604B080BD5B
:105AB000002C0140000400400040014080B582B04D
:105AC00000AF7860C046BD4602B080BD80B582B0F0
:105AD00000AF7860C046BD4602B080BD03008218AA
:105AE000934200D1704719700133F9E770B5002671
:105AF0000C4C0D4D641BA410A64209D1002600F0E9
:105B000019F80A4C0A4D641BA410A64205D170BDB9
:105B1000B300EB5898470136EEE7B300EB589847CF
:105B20000136F2E77C5B00087C5B0008805B0008C4
:105B30007C5B0008F8B5C046F8BC08BC9E467047C0
:0C5B4000F8B5C046F8BC08BC9E46704793
:105B4C000000000000000000010203040607080921
:105B5C0002030405060708090A0B0C0D0E0F1010A2
:105B6C000102030405060708090A0B0C0D0E0F10A1
:045B7C00E9400008F4
:045B8000C140000818
:105B84000040000800127A00040000000100000038
:040000050800459515
:00000001FF
